:100000000C944A010C947B010C947B010C947B01B1
:100010000C947B010C947B010C947B010C947B0170
:100020000C947B010C94C70C0C94C70C0C94C70C5B
:100030000C947B010C947B010C947B010C947B0150
:100040000C947B010C947B010C947B010C947B0140
:100050000C947B010C947B010C947B010C947D0C23
:100060000C947B010C94470C0C941D0C0C947B019C
:100070000C947B010C947B010C947B010C947B0110
:100080000C947B010C947B010C947B010C947B0100
:100090000C947B010C947B010C947B010C947B01F0
:1000A0000C947B010C947B010C947B010C947B01E0
:1000B0000C947B010C947B010C947B010C947B01D0
:1000C0000C947B010C947B010C947B010C947B01C0
:1000D0000C947B010C947B010C947B010C947B01B0
:1000E0000C947B010C94CD010C9433030C943703D6
:1000F0000C9494030C947D010C941F030C94E10266
:100100000C9460020C94B9010C94DB010C94430D27
:100110000C9407030C9421040C944F0B0C94F802DC
:100120000C94AD030C9429030C9425030C94110337
:100130000C942D030C94D3110C9442040C94FC02E7
:100140000C94AC030C94E6020C940D030C9409047B
:100150000C9400030C941B030C9404030C941302E2
:100160000C9417030C94DA090C94AA010C948009DE
:1001700000000A0B02090C0D0E0807030401000021
:10018000000000000000000000000000000000006F
:10019000000000000000000000000000121110002C
:1001A000000000000000000000000000000000004F
:1001B00000000000000000002000230026002900AD
:1001C0002C002F003200000100000301060109018C
:1001D00000002100240027002A002D0030003300F9
:1001E00001010000040107010A01000022002500AE
:1001F00028002B002E003100340002010000050110
:1002000008010B0105050505070508080808020295
:1002100002020A0A080804040404010101010101A0
:1002200001010303030303030303040707070C0C83
:100230000C0C0C0C0C0C020202020606060606064A
:1002400006060B0B0B0B0B0B0B0B010210202008EF
:100250000810204010204080020102010804020121
:100260000102040810204080804020100804020190
:1002700080040201804020100804020108040201E9
:100280000102040810204080010204081020408070
:10029000430DD31111241FBECFEFD1E2DEBFCDBF7E
:1002A00000E00CBF13E0A0E0B2E0EAEDF6E200E00F
:1002B0000BBF02C007900D92A03BB107D9F72AE00F
:1002C000A0EBB3E001C01D92A634B207E1F711E044
:1002D000C9E4D1E000E006C021970109802FFE01AA
:1002E0000E942513C834D10780E00807A9F70E94AF
:1002F000530E0C945B130C940000AF92BF92CF92FC
:10030000DF92EF92FF920F931F93CF93DF936C01D5
:100310007B018B01040F151FEB015E01AE18BF08B6
:10032000C017D10759F06991D601ED91FC91019068
:10033000F081E02DC6011995892B79F7C501DF9170
:10034000CF911F910F91FF90EF90DF90CF90BF90D2
:10035000AF900895FC01538D448D252F30E0842FFC
:1003600090E0821B930B541710F0CF9608950197DD
:100370000895FC01918D828D981761F0A28DAE0FCA
:10038000BF2FB11D5D968C91928D9F5F9F73928F51
:1003900090E008958FEF9FEF0895FC01918D828D7D
:1003A000981731F0828DE80FF11D858D90E008954A
:1003B0008FEF9FEF0895FC01918D228D892F90E0A2
:1003C000805C9F4F821B91098F73992708958FE35B
:1003D00099E00E94DB0121E0892B09F420E0822FC3
:1003E0000895FC01A48DA80FB92FB11DA35ABF4FCA
:1003F0002C91848D90E001968F739927848FA68924
:10040000B7892C93A089B1898C91837080648C9377
:10041000938D848D981306C00288F389E02D808126
:100420008F7D80830895EF92FF920F931F93CF9358
:10043000DF93EC0181E0888F9B8D8C8D98131AC01F
:10044000E889F989808185FF15C09FB7F894EE8906
:10045000FF896083E889F989808183708064808363
:100460009FBF81E090E0DF91CF911F910F91FF90AE
:10047000EF900895F62E0B8D10E00F5F1F4F0F7356
:100480001127E02E8C8D8E110CC00FB607FCFACF11
:10049000E889F989808185FFF5CFCE010E94F101BD
:1004A000F1CFEB8DEC0FFD2FF11DE35AFF4FF082E2
:1004B0009FB7F8940B8FEA89FB8980818062CFCF48
:1004C000CF93DF93EC01888D8823B9F0AA89BB898B
:1004D000E889F9898C9185FD03C0808186FD0DC076
:1004E0000FB607FCF7CF8C9185FFF2CF808185FF97
:1004F000EDCFCE010E94F101E9CFDF91CF910895B8
:1005000080E090E0892B29F00E94E70181110E9490
:10051000000080E090E0892B49F080E090E0892B9A
:1005200029F00E94000081110E94000080E090E00C
:10053000892B49F080E090E0892B29F00E9400008F
:1005400081110E94000080E090E0892B49F080E05A
:1005500090E0892B29F00E94000081110C9400008A
:100560000895282F30E0F901E059FE4F9491F901E8
:10057000E65BFD4F44912C5F3D4FF901249122230E
:1005800009F435C0992311F191509231F8F4E92F13
:10059000F0E08827E153FD4F8F4F0C9425130003A3
:1005A0000403E102F802FC02E60207030D03110353
:1005B00017031B031F0325032903E6022D0333033F
:1005C0003703809180008F7780938000E22FF0E0E6
:1005D000EE0FFF1FE651FE4FA591B4918FB7F8942F
:1005E000EC91611148C040954E234C938FBF089504
:1005F000809180008F7DE8CF80918000877FE4CF5D
:1006000084B58F7784BDE2CF84B58F7DFBCF809199
:10061000B0008F778093B000D9CF8091B0008F7DEC
:10062000F9CF809190008F7780939000CFCF809109
:1006300090008F7DF9CF80919000877FF5CF8091DA
:10064000A0008F778093A000C1CF8091A0008F7D04
:10065000F9CF8091A000877FF5CF809120018F771F
:1006600080932001B3CF809120018F7DF9CF8091BD
:100670002001877FF5CF4E2BB8CF3FB7F8948091FC
:10068000F7059091F805A091F905B091FA0526B506
:10069000A89B05C02F3F19F00196A11DB11D3FBFBA
:1006A000BA2FA92F982F8827BC01CD01620F711D89
:1006B000811D911D42E0660F771F881F991F4A9583
:1006C000D1F708958F929F92AF92BF92CF92DF920F
:1006D000EF92FF924B015C010E943D036B017C0194
:1006E0000E943D036C197D098E099F09683E734085
:1006F00081059105A8F321E0821A9108A108B108AB
:1007000088EEC80E83E0D81EE11CF11C8114910410
:10071000A104B10429F7FF90EF90DF90CF90BF9034
:10072000AF909F908F9008952091FD053091FE0528
:100730002817390771F49091FB058091FC059817F3
:1007400041F0E091FB05F0E0EA54FA4F808190E03F
:1007500008958FEF9FEF08950895EF92FF920F9302
:100760001F93CF93DF93DC015C96ED90FC905D9737
:10077000E114F10479F481E090E013969C938E9358
:10078000129790E080E0DF91CF911F910F91FF9041
:10079000EF9008955196ED91FC91529750968C915F
:1007A0005097982F90950FB75E962C915E97122FC9
:1007B000127021FD6095F8942081112319F1282BE6
:1007C0002083E7012197F1F728E0462F50E03081A0
:1007D00060FF1AC0382B3083E7012197F1F7BA0187
:1007E00075956795215089F7112381F080818923C0
:1007F00080830FBF5C968D919C910197F1F781E00A
:1008000090E0C1CF2923DCCF3923E5CF9081892B1C
:10081000EFCF2091FD053091FE052817390771F4BF
:100820008091FC052091FB0590E0805C9F4F821B2E
:10083000910960E470E00E94EF12089590E080E07A
:1008400008952091FD053091FE0528173907B9F468
:100850009091FB058091FC05981789F0E091FB05CC
:10086000F0E0EA54FA4F80812091FB0530E02F5FE1
:100870003F4F2F7333272093FB0590E008958FEFB0
:100880009FEF089590E080E008952091B00321113A
:1008900009C021E02093B0033091DC092091DD09EB
:1008A0003CBD2DBD60E0FC0184810C94B10261E08F
:1008B000FC0184810E94B1028091B00381111092E9
:1008C000B00308958EBD00000DB407FEFDCF8EB5B8
:1008D00008958FEF0C9462040F931F93CF93DF93CF
:1008E0008C012FB7F89480913B0990913C09A0911D
:1008F0003D09B0913E092FBFEC010E9469048F3F72
:10090000B1F02FB7F89480913B0990913C09A091E8
:100910003D09B0913E092FBF8C1B9D0B801791079D
:1009200060F380E0DF91CF911F910F91089581E0F6
:10093000F9CFCF92DF92EF92FF920F931F93CF9355
:10094000DF93EC01162F69017A018E81882389F0EB
:100950008F8198859C012F5F3F4F38872F8382308E
:10096000924018F40E946904F3CFCE010E9457040C
:100970001E82CE010E9445048CE291E00E946C042C
:10098000812F80640E94620408E110E0D701C60153
:10099000002E04C0B695A795979587950A94D2F72F
:1009A0000E94620408501109083F8FEF180771F781
:1009B0008FEF0E94620410E00E9469048A8787FF1B
:1009C00004C01F3F11F01F5FF7CFDF91CF911F9140
:1009D0000F91FF90EF90DF90CF900895CF92DF922C
:1009E000EF92FF920F93CF93DF93EC01690182E1C5
:1009F000411551056105710599F08B85833039F0FA
:100A000089E0440F551F661F771F8A95D1F79A0119
:100A1000AB0168E1CE010E949904882319F084E0BB
:100A20008D832DC08EEF0E94620476018EEFD81A5E
:100A3000F70181917F010E946204EC14FD04C1F76B
:100A40008FEF0E9462048FEF0E9462040E9469048B
:100A50008A878F71853071F4011116C0CE010E9412
:100A6000570481E0DF91CF910F91FF90EF90DF90DD
:100A7000CF90089581E18D83CE010E945704CE016D
:100A80000E94570480E0EECF88E592E00E946C045B
:100A9000811102C085E1C4CF20E030E0A9016DE002
:100AA000CE010E949904882311F084E1B9CF0E94FD
:100AB00069048111FACFD2CF0F934091B2035091C4
:100AC000B3036091B4037091B503411551056105FD
:100AD000710589F0082F26EB33E090E080E00E945A
:100AE000EE04882349F01092B2031092B3031092DF
:100AF000B4031092B50381E00F9108950F93CF9343
:100B0000C82F8091B103811105C0C1E08C2FCF9116
:100B10000F910895409100025091010260910202EC
:100B2000709103020C2F26EB33E090E080E00E94EE
:100B3000EE04811102C0C0E0E9CFCC2331F381E0A3
:100B40000E945C058823B9F31092B103DFCFAF9206
:100B5000BF92CF92DF92EF92FF921F93CF93DF93DA
:100B60006B017C01142F8091000290910102A091F1
:100B70000202B09103028C159D05AE05BF0509F474
:100B8000BFC081E00E947E058823E1F180910600CC
:100B90008823A1F08091000090910100A0910200B3
:100BA000B0910300C816D906EA06FB0639F4809115
:100BB000070090910800892B09F461C0C0920000E1
:100BC000D0920100E0920200F092030080910B00AD
:100BD000A7019601833039F099E0220F331F441F9B
:100BE000551F9A95D1F761E190E080E00E94990449
:100BF000882391F083E08093050090E080E00E94DC
:100C0000570480E0DF91CF911F91FF90EF90DF902C
:100C1000CF90BF90AF9008952FB7F89480913B0983
:100C200090913C09A0913D09B0913E092FBFEC0184
:100C30000E94690480930A008F3FC1F42FB7F89493
:100C400080913B0990913C09A0913D09B0913E09EA
:100C50002FBF8C1B9D0B8D32914050F38FE0809302
:100C6000050090E080E00E945704C7CF8E3FC1F599
:100C7000109208001092070081E080930600C6EBF6
:100C8000D3E086EBA82E85E0B82E0E9469048993F4
:100C9000AC16BD06D1F780910700909108009E5FC9
:100CA000909308008093070020910900222319F0F7
:100CB00081159240E8F0809106008823C9F0809168
:100CC0000700909108009C012F5F3F4F3093080070
:100CD000209307008230924028F40E946904EFCFED
:100CE0008DE0BDCF90E080E00E9457041092060096
:100CF000C0920002D0920102E0920202F09203023E
:100D00004091B103412B4093B10381E07BCF4F92DF
:100D10005F926F927F928F929F92AF92BF92CF928B
:100D2000DF92EF92FF920F931F93CF93DF93EC012B
:100D3000423051056105710590F480E0DF91CF915B
:100D40001F910F91FF90EF90DF90CF90BF90AF90E9
:100D50009F908F907F906F905F904F9008958985BE
:100D60009A85AB85BC850196A11DB11D8417950799
:100D7000A607B70710F3CB88DC88ED88FE888F893B
:100D8000803109F042C0BB27A72F962F852F48013D
:100D900059012A013B01C80ED91EEA1EFB1E809193
:100DA000000290910102A0910202B0910302C816C4
:100DB000D906EA06FB0699F58F898031C1F5B301A2
:100DC000A201552766277727440F551F4A545C4FC9
:100DD000FA01918280828091B10381608093B10396
:100DE0008A89823080F08D819E81AF81B8858C0D9B
:100DF0009D1DAE1DBF1D8093B2039093B303A093BE
:100E0000B403B093B50381E099CFDB01CA01E7E0F9
:100E1000B695A79597958795EA95D1F7B8CF40E015
:100E2000C701B6010E94A7058111C6CF86CFB301C5
:100E3000A2014F77552766277727440F551F440F88
:100E4000551F4A545C4FFA0180829182A282B3827C
:100E5000C2CF8F929F92AF92BF92CF92DF92EF92CA
:100E6000FF920F931F93CF93DF93FC0181859285AF
:100E7000A385B4850196A11DB11D84179507A6070A
:100E8000B70770F480E0DF91CF911F910F91FF9031
:100E9000EF90DF90CF90BF90AF909F908F9008958C
:100EA00083889488A588B6888789803189F5BB278F
:100EB000A72F962F852FE9016A017B018F01BC01C5
:100EC000CD01680D791D8A1D9B1D809000029090B8
:100ED0000102A0900202B090030286169706A806AF
:100EE000B90601F5F8018789803111F5DD24EE247A
:100EF000FF24F601EE0FFF1FEA54FC4F8081918121
:100F0000B0E0A0E088839983AA83BB8381E0BBCF54
:100F1000DB01CA01C7E0B695A79597958795CA9555
:100F2000D1F7C9CF40E00E94A7058111DBCFAACF3E
:100F3000E894C7F8DD24EE24FF24F601EE0FFF1F2E
:100F4000EE0FFF1FEA54FC4F80819181A281B38193
:100F5000BF70D8CF8F929F92AF92BF92CF92DF9205
:100F6000EF92FF920F931F93CF93DF93EC018D814C
:100F700081110EC080E0DF91CF911F910F91FF9002
:100F8000EF90DF90CF90BF90AF909F908F9008959B
:100F90000B891C892D893E890417150726073707F9
:100FA00048F34A015B01823031F48A869B86AC8625
:100FB000BD8681E0E0CF81149104A104B10449F41D
:100FC0001E821F82188619861A861B861C861D861D
:100FD000F0CF0A851B852C853D85EB8DFC8D8585A5
:100FE00090E00996B901A8014150510961097109C0
:100FF000082E04C076956795579547950A94D2F7C1
:1010000075016401E1E0CE1AD108E108F10804C0DD
:10101000F694E794D794C7948A95D2F7C416D50668
:10102000E606F70620F0012B022B032B11F58F8922
:10103000988DA98DBA8D8E839F83A887B9878E01DD
:101040000A5F1F4FC114D104E104F10409F4ADCFCC
:101050004E815F816885798598018B8D9C8D0E947A
:10106000290791E0C91AD108E108F1088111EACFF6
:1010700081CFC41AD50AE60AF70AE1CF3F924F9210
:101080005F926F927F928F929F92AF92BF92CF9218
:10109000DF92EF92FF920F931F93CF93DF93CDB721
:1010A000DEB72C970FB6F894DEBF0FBECDBF5C0144
:1010B000DC015B968D909C905C9716964D905D90B0
:1010C0006D907C901997411451046104710409F4E6
:1010D00068C0BFEF4B1A5B0A6B0A7B0A312CF40124
:1010E00081859285A385B4859C01AD012F5F3F4F1B
:1010F0004F4F5F4F29873A874B875C8773016201A7
:101100001D821E821F821886F40181859285A38527
:10111000B4852D813E814F815885281739074A07AC
:101120005B0708F056C089859A85AB85BC858C1510
:101130009D05AE05BF0550F482E0C82ED12CE12CF0
:10114000F12C92E0492E512C612C712C9E012F5FC5
:101150003F4FB701A601C4010E9429078823C9F1A6
:1011600089819A81AB81BC81892B8A2B8B2B09F1D8
:10117000260137019FEF491A590A690A790A2D8118
:101180003E814F8158852F5F3F4F4F4F5F4F2D83DB
:101190003E834F8358873FEFC31AD30AE30AF30A0B
:1011A000B3CFF40140805180628073803324339444
:1011B00096CFC414D504E604F70409F70FEF1FEF28
:1011C0002FEF3FE0B701A601C4010E9487068111FD
:1011D00019C080E02C960FB6F894DEBF0FBECDBFCD
:1011E000DF91CF911F910F91FF90EF90DF90CF9003
:1011F000BF90AF909F908F907F906F905F904F9037
:101200003F900895D50116964D915D916D917C9119
:101210001997411551056105710539F0970186014E
:10122000C4010E9487068823A1F2D5011696CD92AB
:10123000DD92ED92FC921997332051F0D701C6014F
:101240000196A11DB11DF40180839183A283B38314
:10125000F5018789908DA18DB28D892B8A2B8B2BDF
:1012600039F48481C78AD08EE18EF28E80688483BF
:10127000F50184818062848381E0ACCF1F93CF939A
:10128000DF93EC01162F8C8187FF2AC06E857F8546
:101290008889998941E00E94A705882361F1EA893C
:1012A00080E2E89FF0011124EA54FC4F309719F1D5
:1012B0008D81823040F48B899C89AD89BE89848F71
:1012C000958FA68FB78F8F89988D938F828F8F89F7
:1012D000988DA98DBA8DB58BA48B8C818F778C83DB
:1012E000111103C08C818F7E8C83812FDF91CF9170
:1012F0001F910C947E0580E0DF91CF911F9108959E
:101300001F93CF93DF93EC018D81813031F090E01A
:1013100080E0DF91CF911F9108958C8181FFF7CFFD
:1013200082FD1BC090E080E00E9445040E94690499
:10133000182F90E080E00E9457041F3F41F78C81F6
:1013400085FF1EC08D81882321F060E0CE010E94C0
:101350003E098C818F7D8C83DACF4B895C896D89C6
:101360007E898A859B85AC85BD8584179507A607F0
:10137000B707C1F2CE010E94AA078111D3CFC7CF10
:101380004091B2035091B3036091B4037091B503DF
:10139000452B462B472B21F080E00E945C05B7CF00
:1013A00080618C832A853B85317080E092E0821BCE
:1013B000930BAFCF9F92AF92BF92CF92DF92EF92FB
:1013C000FF920F931F93CF93DF9300D01F921F9232
:1013D000CDB7DEB78C016D83DC0115968C91159726
:1013E000813009F0B9C014968C9181FFB5C082FD9F
:1013F0009FC0D8015B96ED91FC915C971A96AD90D9
:10140000BD90CD90DC901D9794809A94B601A50173
:1014100089E076956795579547958A95D1F79422F7
:10142000B1E0BB22992009F49FC0D8015B96ED91F1
:10143000FC915C971696CD90DD90ED90FC901997FD
:10144000B2E0CB1AD108E108F108858504C0CC0CC4
:10145000DD1CEE1CFF1C8A95D2F7468557856089F6
:101460007189C40ED51EE61EF71EC90CD11CE11CE5
:10147000F11CA114B10409F00AC1F8014285538599
:101480006485758583899489A589B6894817590724
:101490006A077B0708F4FBC081E00E947E05882371
:1014A00009F45AC0C0920002D0920102E0920202F6
:1014B000F09203028091B10381608093B103F50142
:1014C000EA54FC4F8D818083F80182859385A48541
:1014D000B5850196A11DB11D82879387A487B58725
:1014E0004389548965897689481759076A077B07B4
:1014F00038F42481838B948BA58BB68B206824834E
:10150000D80114968C9183FD9FC081E090E00F90EC
:101510000F900F900F900F90DF91CF911F910F912F
:10152000FF90EF90DF90CF90BF90AF909F90089585
:10153000F801438954896589768982859385A485D4
:10154000B585481759076A077B0709F452CFC801C8
:101550000E94AA0781114DCF81E090E0D801139637
:101560009C938E93129749C0D80116964D915D9128
:101570006D917C911997A114B10409F071C04115C6
:1015800051056105710589F557968D919D910D90D5
:10159000BC91A02D0097A105B10509F04FC0C8016D
:1015A0000E943E088823C1F2D8015B96ED91FC9120
:1015B0005C971696CD90DD90ED90FC901997B2E077
:1015C000CB1AD108E108F108858504C0CC0CDD1CDC
:1015D000EE1CFF1C8A95D2F7468557856089718974
:1015E000C40ED51EE61EF71E48CF9E012F5F3F4F4B
:1015F000CF010E942907811103C090E080E087CFCE
:1016000089819A81AB81BC81F801238D348DF901E8
:10161000278948EF5FEF60E070E0203121F048EF6C
:101620005FEF6FEF7FE084179507A607B70730F0ED
:10163000C8010E943E088111F8CE8ECFF801868342
:101640009783A087B187F1CEF8018581882309F4BB
:1016500083CF61E0C8010E943E09811156CF7CCF43
:101660006A017B01B2E0CB1AD108E108F108858557
:1016700004C0CC0CDD1CEE1CFF1C8A95D2F74685FD
:10168000578560897189C40ED51EE61EF71E41E09C
:10169000C701B6010E94A705811111CF5DCF089542
:1016A000CF93DF93EC016991662329F087E29AE0FA
:1016B0000E94AD03F8CFDF91CF910895EF92FF9292
:1016C0001F93CF93DF9300D0CDB7DEB77C01FC0131
:1016D000118119821A821B826DE087E29AE00E94D2
:1016E000AD036AE087E29AE00E94AD0382E0F70171
:1016F000E80FF11D9081992319F019278F5FF7CF1B
:10170000E12F17FF02C0EFE0E10FE595E595E595C4
:10171000E5950E2E000CFF0BEC5FFD4F8081898359
:10172000E12FEF78E7FF03C0E150E06FEF5F0E2E8F
:10173000000CFF0BEC5FFD4F80818A831B82C70189
:101740000E94500B6AE287E29AE00E94AD03CE014C
:1017500001960E94500B6DE087E29AE00E94AD0373
:101760006AE087E29AE00E94AD030F900F900F901D
:10177000DF91CF911F91FF90EF900895FC010190B0
:101780000020E9F73197AF01481B590BBC018FE3EB
:1017900099E00C947D018F929F92AF92BF920F932C
:1017A0001F93CF93DF93CDB7DEB7A1970FB6F89411
:1017B000DEBF0FBECDBF19A2423008F44AE08E0151
:1017C0000F5D1F4F842E912CB12CA12CA5019401EB
:1017D0000E940313E62FB901CA01EA30F4F4E05D78
:1017E000D801EE938D01232B242B252B79F790E044
:1017F00080E0109719F0CD010E94BE0BA1960FB6A4
:10180000F894DEBF0FBECDBFDF91CF911F910F9136
:10181000BF90AF909F908F900895E95CE1CFCF93F8
:10182000DF930E94BE0BEC0184E492E00E94BE0BA9
:101830008C0F9D1FDF91CF9108951F920F920FB6CD
:101840000F9211240BB60F922F933F934F935F93F8
:101850006F937F938F939F93AF93BF93EF93FF9378
:101860008FE399E00E94F101FF91EF91BF91AF9159
:101870009F918F917F916F915F914F913F912F91A8
:101880000F900BBE0F900FBE0F901F9018951F92D8
:101890000F920FB60F9211240BB60F922F938F93C6
:1018A0009F93EF93FF93E0914F09F091500980814E
:1018B000E0915509F091560982FD1DC090818091FB
:1018C00058098F5F8F7320915909821741F0E09179
:1018D0005809F0E0E15CF64F958F80935809FF912D
:1018E000EF919F918F912F910F900BBE0F900FBE94
:1018F0000F901F9018958081F2CF1F920F920FB614
:101900000F9211242F933F938F939F93AF93BF9385
:1019100080913B0990913C09A0913D09B0913E090D
:101920003091F60523E0230F2D3758F50196A11DC0
:10193000B11D2093F60580933B0990933C09A09339
:101940003D09B0933E098091F7059091F805A0916B
:10195000F905B091FA050196A11DB11D8093F70517
:101960009093F805A093F905B093FA05BF91AF9154
:101970009F918F913F912F910F900FBE0F901F90CD
:10198000189526E8230F0296A11DB11DD2CF1F92F4
:101990000F920FB60F9211240BB60F922F933F9315
:1019A0004F935F936F937F938F939F93AF93BF9367
:1019B000EF93FF93E091FD05F091FE05309749F01C
:1019C000A685B7858585968D91FF16C09C91892344
:1019D000B1F4FF91EF91BF91AF919F918F917F9162
:1019E0006F915F914F913F912F910F900BBE0F9090
:1019F0000FBE0F901F9018959C91892351F7A389D2
:101A0000B4899C918589809589238C93868997894F
:101A10000197F1F7608D718DA685B785558538E002
:101A200020E0CB010197F1F7822F90E09595879503
:101A3000282F4C91452309F02068315091F7868D6D
:101A400081FD20958091FC0590E001968F73992788
:101A50003091FB05381799F0A091FC05B0E0AA542D
:101A6000BA4F2C938093FC05828D938D0197F1F7EB
:101A7000A389B4898C919589892B8C93AACF868D63
:101A80008160868FF1CF0F931F93CF93DF931092D6
:101A900042091092410988EE93E0A0E0B0E0809303
:101AA000430990934409A0934509B093460928E15E
:101AB00032E03093400920933F0925EC30E0309329
:101AC0004C0920934B0924EC30E030934E092093CD
:101AD0004D0920EC30E03093500920934F0921EC60
:101AE00030E0309352092093510922EC30E03093DA
:101AF00054092093530926EC30E030935609209383
:101B00005509109258091092590910925A091092C9
:101B10005B0920E52093DC091092DD091092E309AE
:101B20001092E4091092E7091092E90942E050E0AE
:101B300060E070E04093EA095093EB096093EC0990
:101B40007093ED091092010A10920B0A10920A0A82
:101B50002AE232E03093090A2093080A10920D0A13
:101B600010922A0A1092290A80932B0A90932C0A29
:101B7000A0932D0AB0932E0A86E392E09093280A50
:101B80008093270A10923E0A10923D0A1092400A52
:101B900010923F0A1092420A1092410A1092440A8F
:101BA0001092430A6091450A6E7F6D7F6093450AEB
:101BB0006695617081E0682783E00E94B1024DE480
:101BC00052E0FA01649187E092E0FC012491222323
:101BD00099F030E0220F331FF901E053FE4FA59139
:101BE000B491F901E651FE4F259134912FB7F89445
:101BF0003C91632B6C932FBFFA0144914093370AB9
:101C0000FC018491E82FF0E0EE0FFF1FE651FE4F3C
:101C1000859194919093390A8093380A0CE412E0EC
:101C2000F8012491C6E0D2E0FE0184918823C9F036
:101C300090E0880F991FFC01E053FE4FA591B491ED
:101C4000FC01E651FE4F459154913FB7F8949C91A9
:101C5000822F809598239C93FA0190818923808319
:101C60003FBF8091450A81FD04C061E082E00E948F
:101C7000B10282E08093330AF80104910093340AA0
:101C8000FE01C491EC2FF0E0EE0FFF1FEA54FE4F6F
:101C9000859194919093360A8093350ADF91CF9184
:101CA0001F910F910895CF93DF93CDB7DEB7639760
:101CB0000FB6F894DEBF0FBECDBF789484B58260B6
:101CC00084BD84B5816084BD85B5826085BD85B5E0
:101CD000816085BD80916E00816080936E0010925E
:101CE00081008091810082608093810080918100D9
:101CF000816080938100809180008160809380006A
:101D00008091B10084608093B1008091B0008160C7
:101D10008093B000809191008260809391008091C7
:101D20009100816080939100809190008160809308
:101D300090008091A10082608093A1008091A10019
:101D400081608093A1008091A00081608093A000B9
:101D50008091210182608093210180912101816025
:101D600080932101809120018160809320018091E6
:101D70007A00846080937A0080917A0082608093F8
:101D80007A0080917A00816080937A0080917A0055
:101D9000806880937A001092C10068EE73E080E062
:101DA00090E00E94620387E492E00E940F0CE091B1
:101DB0004F09F091500982E08083E0914B09F09146
:101DC0004C091082E0914D09F0914E0980E1808329
:101DD00010925709E0915309F091540986E08083ED
:101DE000E0915109F0915209808180618083E091F6
:101DF0005109F0915209808188608083E0915109F6
:101E0000F0915209808180688083E0915109F091BE
:101E1000520980818F7D808387E692E00E940F0CBB
:101E20001092420A1092410A1092400A10923F0A00
:101E300010923E0A10923D0A8FE190E09093440A7E
:101E40008093430A8091330A96EF980F943048F0BC
:101E50002EEC280F243028F022EC280F283008F030
:101E600061C021E030E030933E0A20933D0A2DE12D
:101E700030E03093400A20933F0A2DE030E0309369
:101E8000420A2093410A943050F02EEC280F24305F
:101E900030F022EC280FF0E0E0E0283010F4E8E623
:101EA000F0E02081943028F032EC380F383008F41C
:101EB00035C131E0232B943048F09EEC980F9430DC
:101EC00028F08E53F0E0E0E0883010F4E8E6F0E02F
:101ED00020832091330A36EF320F343008F420C1CA
:101EE0008EEC820F843008F41BC182EC820F8830A4
:101EF00008F019C18DE690E090933B0A80933A0A6E
:101F0000343008F013C12650330B81E001C0880F34
:101F10002A95EAF780933C0A8091430A9091440AFB
:101F20000197F1F78091410A9091420A892B49F17A
:101F3000E091FD05F091FE054AE0E732F40709F172
:101F4000309739F0A389B4899C918589809589233C
:101F50008C938091450A8E7F8093450A1092FC05F0
:101F60001092FB0587E29AE09093FE058093FD05B1
:101F7000E0913A0AF0913B0A808190913C0A892BCA
:101F800080838BE892E00E940F0C87EA92E00E9427
:101F90005E0B82EB92E00E940F0C83ED92E00E94B8
:101FA0005E0B87E692E00E940F0C82E093E00E94B5
:101FB0005E0B82E193E00E940F0C88E393E00E94A5
:101FC0005E0B64EF71E080E090E00E94620386E4C3
:101FD00093E00E940F0C82E693E00E940F0C68EEE3
:101FE00073E080E090E00E94620382E993E00E9447
:101FF0000F0C10922C091092290910922A091092A4
:102000002B090FEF15E087E29AE00E940904892B63
:10201000D1F387E29AE00E942104F80181938F01B5
:10202000F9E00F311F0779F710921E098FEF95E045
:102030000E94BE0BEFEFF5E09F012F5F35408191CD
:10204000843209F08BC18081873409F087C1818196
:102050008E3419F0803509F081C18281823509F012
:102060007DC183818D3409F079C18481833409F085
:1020700075C1409127094A8B40901F095090200953
:10208000609021097090220980912809898B8090A5
:10209000230990902409A0902509B09026099091D9
:1020A0002C09988BE0902A09F0902B09E0912909DE
:1020B000EF87C90181509A4F1C0110E000E0F10147
:1020C00081911F01882309F44DC18C3209F0E1C0D0
:1020D0000F5F1F4F0130110509F063C0C12CD12CD7
:1020E000760141914F874423B1F1842F8D7F8C324B
:1020F00091F1AAE0B0E0A70196010E942D134F854F
:10210000242F440F330B205331096901330FEE089C
:10211000FF08C60ED71EE81EF91EE3CF34E0CACE74
:102120008BE690E0E9CE90E080E0E6CE88E02233D6
:1021300009F4F0CE84E0233309F4ECCE82E02433BA
:1021400009F4E8CE82EC820F883018F42E53330B5A
:10215000DCCE81E0DFCEC701B60120E137E240E00E
:1021600050E00E9403132B8B822F885F8F87C7015B
:10217000B60124E630E040E050E00E940313F62E62
:10218000CA01B90124E630E040E050E00E940313A8
:10219000E62E9F85983108F492CFEB89E051EF87C6
:1021A0008ECF0230110549F4F1E0F88BF101808106
:1021B000813409F484CF188A82CF0330110569F580
:1021C00020E030E0A901D1908CE2D816C9F0DD20E2
:1021D000B9F09EE2D916B9F3AAE0B0E00E942D133F
:1021E0002D2DDD0C330B205331094901330FAA0883
:1021F000BB08A5019401260F371F481F591FE3CFC5
:10220000CA01B9010E94611220E034E244E759E4B6
:102210000E94EF114B015C0152CF0430110519F4FB
:10222000F081F98B4CCF0530110569F520E030E0E5
:10223000A901D1908CE2D816C9F0DD20B9F09EE258
:10224000D916B9F3AAE0B0E00E942D132D2DDD0CB4
:10225000330B205331092901330F66087708A30196
:102260009201260F371F481F591FE3CFCA01B9013A
:102270000E94611220E034E244E759E40E94EF1129
:102280002B013C011CCF0630110519F4F081FA8BAB
:1022900016CF0C30110509F012CF809223099092CD
:1022A0002409A0922509B09226094989409328095A
:1022B00040921F09509220096092210970922209D0
:1022C0008F8580932909E0922A09F0922B09988939
:1022D00090932C09EA89E09327098EE0EFE1F9E079
:1022E000DE01119601900D928A95E1F78EE0FE01D4
:1022F0003196ADE2B9E001900D928A95E1F784E460
:1023000092E00E94BE0B8AEA93E00E94BE0B6091AD
:10231000370970E090E080E04AE00E94CB0B8EEA43
:1023200093E00E94BE0B6091380970E090E080E07D
:102330004AE00E94CB0B8EEA93E00E94BE0B6091B4
:10234000390970E090E080E04AE00E94CB0B84E421
:1023500092E00E94BE0B0E9480024BCE84818111CC
:102360006BCEBBCF8092230990922409A0922509BD
:10237000B0922609F989F093280940921F095092DA
:10238000200960922109709222094F854093290902
:10239000E0922A09F0922B09888980932C099A8966
:1023A000909327099ACF86E392E09093280A80932E
:1023B000270A8091FD059091FE0587529A4071F49D
:1023C000E0913A0AF0913B0A908180913C0A809515
:1023D000892380831092FE051092FD0508950E94C6
:1023E00003120C94B5120E94AE1258F00E94A7126C
:1023F00040F029F45F3F29F00C949E1251110C9487
:10240000E9120C94A4120E94C61268F39923B1F346
:10241000552391F3951B550BBB27AA27621773070A
:10242000840738F09F5F5F4F220F331F441FAA1F9E
:10243000A9F335D00E2E3AF0E0E832D0915050405A
:10244000E695001CCAF72BD0FE2F29D0660F771F08
:10245000881FBB1F261737074807AB07B0E809F0EE
:10246000BB0B802DBF01FF2793585F4F3AF09E3F73
:10247000510578F00C949E120C94E9125F3FE4F33E
:10248000983ED4F3869577956795B795F7959F5FB6
:10249000C9F7880F911D9695879597F90895E1E002
:1024A000660F771F881FBB1F621773078407BA0761
:1024B00020F0621B730B840BBA0BEE1F88F7E095BC
:1024C0000895E89409C097FB3EF490958095709527
:1024D00061957F4F8F4F9F4F9923A9F0F92F96E970
:1024E000BB279395F695879577956795B795F111E5
:1024F000F8CFFAF4BB0F11F460FF1BC06F5F7F4F82
:102500008F4F9F4F16C0882311F096E911C0772393
:1025100021F09EE8872F762F05C0662371F096E89C
:10252000862F70E060E02AF09A95660F771F881F6B
:10253000DAF7880F9695879597F9089597F99F6729
:1025400080E870E060E008959FEF80EC089500243B
:102550000A941616170618060906089500240A9408
:1025600012161306140605060895092E0394000C8E
:1025700011F4882352F0BB0F40F4BF2B11F460FF1D
:1025800004C06F5F7F4F8F4F9F4F089557FD905846
:10259000440F551F59F05F3F71F04795880F97FB27
:1025A000991F61F09F3F79F08795089512161306E1
:1025B0001406551FF2CF4695F1DF08C01616170610
:1025C0001806991FF1CF8695710561050894089545
:1025D000E894BB2766277727CB0197F9089597FBE7
:1025E000072E16F4009407D077FD09D00E94381307
:1025F00007FC05D03EF4909581959F4F0895709506
:1026000061957F4F0895A1E21A2EAA1BBB1BFD0105
:102610000DC0AA1FBB1FEE1FFF1FA217B307E407C1
:10262000F50720F0A21BB30BE40BF50B661F771F19
:10263000881F991F1A9469F76095709580959095F9
:102640009B01AC01BD01CF010895EE0FFF1F881F54
:102650008BBF0790F691E02D19940E944C13A59F13
:10266000900DB49F900DA49F800D911D112408958D
:10267000AA1BBB1B51E107C0AA1FBB1FA617B707A8
:1026800010F0A61BB70B881F991F5A95A9F78095C4
:102690009095BC01CD010895A29FB001B39FC001E8
:1026A000A39F700D811D1124911DB29F700D811D7E
:1026B0001124911D089511E0C9E4D1E000E006C0A5
:1026C000802FFE010E9425132196011DCA34D107D7
:0A26D00080E00807A9F7F894FFCF97
:1026DA00FFFFFFFF30313233343536373839414264
:1026EA00434445460000000013027D01AA0160022E
:1026FA00DB01B901CD0100000000DA097D01800982
:10270A004F0B00000000AD037D014204AC03090435
:10271A00210494030D0A0053657474696E6720736B
:10272A00657269616C20737065656420746F20310D
:10273A0031353230302E0053657474696E67204724
:10274A0050532073657269616C20737065656420EB
:10275A00746F203131353230302E0053657474690C
:10276A006E672047505320746F206E6F726D616CD4
:10277A00206D6F64652E0024504D544B3232352C37
:10278A00300053657474696E67204E4D4541206F61
:10279A007574707574206672657175656E636965A6
:1027AA00732E0024504D544B3331342C302C312CA1
:1027BA00312C312C312C302C302C302C302C302C2C
:1027CA00302C302C302C302C302C302C302C302C1F
:1027DA00300024504D544B3235312C3131353230A2
:1027EA00300053657474696E67206D657373616731
:1027FA006520696E74657276616C20746F20312071
:10280A007365636F6E642E0024504D544B32323020
:10281A002C31303030004750532073746172747514
:10282A007020646F6E6520636F72726563746C7971
:10283A002E0043414E2052656164202D2054657359
:10284A0074696E6720726563656976616C206F666C
:10285A002043414E20427573206D6573736167652D
:10286A002E00426567696E6E696E67207472616ECA
:10287A00736D697373696F6E2E0054696D653A00E2
:00000001FF
