:020000040000FA
:100000000C944A010C947B010C947B010C947B01B1
:100010000C947B010C947B010C947B010C947B0170
:100020000C947B010C94C70C0C94C70C0C94C70C5B
:100030000C947B010C947B010C947B010C947B0150
:100040000C947B010C947B010C947B010C947B0140
:100050000C947B010C947B010C947B010C947D0C23
:100060000C947B010C94470C0C941D0C0C947B019C
:100070000C947B010C947B010C947B010C947B0110
:100080000C947B010C947B010C947B010C947B0100
:100090000C947B010C947B010C947B010C947B01F0
:1000A0000C947B010C947B010C947B010C947B01E0
:1000B0000C947B010C947B010C947B010C947B01D0
:1000C0000C947B010C947B010C947B010C947B01C0
:1000D0000C947B010C947B010C947B010C947B01B0
:1000E0000C947B010C94CD010C9433030C943703D6
:1000F0000C9494030C947D010C941F030C94E10266
:100100000C9460020C94B9010C94DB010C94430D27
:100110000C9407030C9421040C944F0B0C94F802DC
:100120000C94AD030C9429030C9425030C94110337
:100130000C942D030C94D3110C9442040C94FC02E7
:100140000C94AC030C94E6020C940D030C9409047B
:100150000C9400030C941B030C9404030C941302E2
:100160000C9417030C94DA090C94AA010C948009DE
:1001700000000A0B02090C0D0E0807030401000021
:10018000000000000000000000000000000000006F
:10019000000000000000000000000000121110002C
:1001A000000000000000000000000000000000004F
:1001B00000000000000000002000230026002900AD
:1001C0002C002F003200000100000301060109018C
:1001D00000002100240027002A002D0030003300F9
:1001E00001010000040107010A01000022002500AE
:1001F00028002B002E003100340002010000050110
:1002000008010B0105050505070508080808020295
:1002100002020A0A080804040404010101010101A0
:1002200001010303030303030303040707070C0C83
:100230000C0C0C0C0C0C020202020606060606064A
:1002400006060B0B0B0B0B0B0B0B010210202008EF
:100250000810204010204080020102010804020121
:100260000102040810204080804020100804020190
:1002700080040201804020100804020108040201E9
:100280000102040810204080010204081020408070
:10029000430DD31111241FBECFEFD1E2DEBFCDBF7E
:1002A00000E00CBF13E0A0E0B2E0EAEDF6E200E00F
:1002B0000BBF02C007900D92A03BB107D9F72AE00F
:1002C000A0EBB3E001C01D92A634B207E1F711E044
:1002D000C9E4D1E000E006C021970109802FFE01AA
:1002E0000E942513C834D10780E00807A9F70E94AF
:1002F000530E0C945B130C940000AF92BF92CF92FC
:10030000DF92EF92FF920F931F93CF93DF936C01D5
:100310007B018B01040F151FEB015E01AE18BF08B6
:10032000C017D10759F06991D601ED91FC91019068
:10033000F081E02DC6011995892B79F7C501DF9170
:10034000CF911F910F91FF90EF90DF90CF90BF90D2
:10035000AF900895FC01538D448D252F30E0842FFC
:1003600090E0821B930B541710F0CF9608950197DD
:100370000895FC01918D828D981761F0A28DAE0FCA
:10038000BF2FB11D5D968C91928D9F5F9F73928F51
:1003900090E008958FEF9FEF0895FC01918D828D7D
:1003A000981731F0828DE80FF11D858D90E008954A
:1003B0008FEF9FEF0895FC01918D228D892F90E0A2
:1003C000805C9F4F821B91098F73992708958FE35B
:1003D00099E00E94DB0121E0892B09F420E0822FC3
:1003E0000895FC01A48DA80FB92FB11DA35ABF4FCA
:1003F0002C91848D90E001968F739927848FA68924
:10040000B7892C93A089B1898C91837080648C9377
:10041000938D848D981306C00288F389E02D808126
:100420008F7D80830895EF92FF920F931F93CF9358
:10043000DF93EC0181E0888F9B8D8C8D98131AC01F
:10044000E889F989808185FF15C09FB7F894EE8906
:10045000FF896083E889F989808183708064808363
:100460009FBF81E090E0DF91CF911F910F91FF90AE
:10047000EF900895F62E0B8D10E00F5F1F4F0F7356
:100480001127E02E8C8D8E110CC00FB607FCFACF11
:10049000E889F989808185FFF5CFCE010E94F101BD
:1004A000F1CFEB8DEC0FFD2FF11DE35AFF4FF082E2
:1004B0009FB7F8940B8FEA89FB8980818062CFCF48
:1004C000CF93DF93EC01888D8823B9F0AA89BB898B
:1004D000E889F9898C9185FD03C0808186FD0DC076
:1004E0000FB607FCF7CF8C9185FFF2CF808185FF97
:1004F000EDCFCE010E94F101E9CFDF91CF910895B8
:1005000080E090E0892B29F00E94E70181110E9490
:10051000000080E090E0892B49F080E090E0892B9A
:1005200029F00E94000081110E94000080E090E00C
:10053000892B49F080E090E0892B29F00E9400008F
:1005400081110E94000080E090E0892B49F080E05A
:1005500090E0892B29F00E94000081110C9400008A
:100560000895282F30E0F901E059FE4F9491F901E8
:10057000E65BFD4F44912C5F3D4FF901249122230E
:1005800009F435C0992311F191509231F8F4E92F13
:10059000F0E08827E153FD4F8F4F0C9425130003A3
:1005A0000403E102F802FC02E60207030D03110353
:1005B00017031B031F0325032903E6022D0333033F
:1005C0003703809180008F7780938000E22FF0E0E6
:1005D000EE0FFF1FE651FE4FA591B4918FB7F8942F
:1005E000EC91611148C040954E234C938FBF089504
:1005F000809180008F7DE8CF80918000877FE4CF5D
:1006000084B58F7784BDE2CF84B58F7DFBCF809199
:10061000B0008F778093B000D9CF8091B0008F7DEC
:10062000F9CF809190008F7780939000CFCF809109
:1006300090008F7DF9CF80919000877FF5CF8091DA
:10064000A0008F778093A000C1CF8091A0008F7D04
:10065000F9CF8091A000877FF5CF809120018F771F
:1006600080932001B3CF809120018F7DF9CF8091BD
:100670002001877FF5CF4E2BB8CF3FB7F8948091FC
:10068000F7059091F805A091F905B091FA0526B506
:10069000A89B05C02F3F19F00196A11DB11D3FBFBA
:1006A000BA2FA92F982F8827BC01CD01620F711D89
:1006B000811D911D42E0660F771F881F991F4A9583
:1006C000D1F708958F929F92AF92BF92CF92DF920F
:1006D000EF92FF924B015C010E943D036B017C0194
:1006E0000E943D036C197D098E099F09683E734085
:1006F00081059105A8F321E0821A9108A108B108AB
:1007000088EEC80E83E0D81EE11CF11C8114910410
:10071000A104B10429F7FF90EF90DF90CF90BF9034
:10072000AF909F908F9008952091FD053091FE0528
:100730002817390771F49091FB058091FC059817F3
:1007400041F0E091FB05F0E0EA54FA4F808190E03F
:1007500008958FEF9FEF08950895EF92FF920F9302
:100760001F93CF93DF93DC015C96ED90FC905D9737
:10077000E114F10479F481E090E013969C938E9358
:10078000129790E080E0DF91CF911F910F91FF9041
:10079000EF9008955196ED91FC91529750968C915F
:1007A0005097982F90950FB75E962C915E97122FC9
:1007B000127021FD6095F8942081112319F1282BE6
:1007C0002083E7012197F1F728E0462F50E03081A0
:1007D00060FF1AC0382B3083E7012197F1F7BA0187
:1007E00075956795215089F7112381F080818923C0
:1007F00080830FBF5C968D919C910197F1F781E00A
:1008000090E0C1CF2923DCCF3923E5CF9081892B1C
:10081000EFCF2091FD053091FE052817390771F4BF
:100820008091FC052091FB0590E0805C9F4F821B2E
:10083000910960E470E00E94EF12089590E080E07A
:1008400008952091FD053091FE0528173907B9F468
:100850009091FB058091FC05981789F0E091FB05CC
:10086000F0E0EA54FA4F80812091FB0530E02F5FE1
:100870003F4F2F7333272093FB0590E008958FEFB0
:100880009FEF089590E080E008952091B00321113A
:1008900009C021E02093B0033091DC092091DD09EB
:1008A0003CBD2DBD60E0FC0184810C94B10261E08F
:1008B000FC0184810E94B1028091B00381111092E9
:1008C000B00308958EBD00000DB407FEFDCF8EB5B8
:1008D00008958FEF0C9462040F931F93CF93DF93CF
:1008E0008C012FB7F89480913B0990913C09A0911D
:1008F0003D09B0913E092FBFEC010E9469048F3F72
:10090000B1F02FB7F89480913B0990913C09A091E8
:100910003D09B0913E092FBF8C1B9D0B801791079D
:1009200060F380E0DF91CF911F910F91089581E0F6
:10093000F9CFCF92DF92EF92FF920F931F93CF9355
:10094000DF93EC01162F69017A018E81882389F0EB
:100950008F8198859C012F5F3F4F38872F8382308E
:10096000924018F40E946904F3CFCE010E9457040C
:100970001E82CE010E9445048CE291E00E946C042C
:10098000812F80640E94620408E110E0D701C60153
:10099000002E04C0B695A795979587950A94D2F72F
:1009A0000E94620408501109083F8FEF180771F781
:1009B0008FEF0E94620410E00E9469048A8787FF1B
:1009C00004C01F3F11F01F5FF7CFDF91CF911F9140
:1009D0000F91FF90EF90DF90CF900895CF92DF922C
:1009E000EF92FF920F93CF93DF93EC01690182E1C5
:1009F000411551056105710599F08B85833039F0FA
:100A000089E0440F551F661F771F8A95D1F79A0119
:100A1000AB0168E1CE010E949904882319F084E0BB
:100A20008D832DC08EEF0E94620476018EEFD81A5E
:100A3000F70181917F010E946204EC14FD04C1F76B
:100A40008FEF0E9462048FEF0E9462040E9469048B
:100A50008A878F71853071F4011116C0CE010E9412
:100A6000570481E0DF91CF910F91FF90EF90DF90DD
:100A7000CF90089581E18D83CE010E945704CE016D
:100A80000E94570480E0EECF88E592E00E946C045B
:100A9000811102C085E1C4CF20E030E0A9016DE002
:100AA000CE010E949904882311F084E1B9CF0E94FD
:100AB00069048111FACFD2CF0F934091B2035091C4
:100AC000B3036091B4037091B503411551056105FD
:100AD000710589F0082F26EB33E090E080E00E945A
:100AE000EE04882349F01092B2031092B3031092DF
:100AF000B4031092B50381E00F9108950F93CF9343
:100B0000C82F8091B103811105C0C1E08C2FCF9116
:100B10000F910895409100025091010260910202EC
:100B2000709103020C2F26EB33E090E080E00E94EE
:100B3000EE04811102C0C0E0E9CFCC2331F381E0A3
:100B40000E945C058823B9F31092B103DFCFAF9206
:100B5000BF92CF92DF92EF92FF921F93CF93DF93DA
:100B60006B017C01142F8091000290910102A091F1
:100B70000202B09103028C159D05AE05BF0509F474
:100B8000BFC081E00E947E058823E1F180910600CC
:100B90008823A1F08091000090910100A0910200B3
:100BA000B0910300C816D906EA06FB0639F4809115
:100BB000070090910800892B09F461C0C0920000E1
:100BC000D0920100E0920200F092030080910B00AD
:100BD000A7019601833039F099E0220F331F441F9B
:100BE000551F9A95D1F761E190E080E00E94990449
:100BF000882391F083E08093050090E080E00E94DC
:100C0000570480E0DF91CF911F91FF90EF90DF902C
:100C1000CF90BF90AF9008952FB7F89480913B0983
:100C200090913C09A0913D09B0913E092FBFEC0184
:100C30000E94690480930A008F3FC1F42FB7F89493
:100C400080913B0990913C09A0913D09B0913E09EA
:100C50002FBF8C1B9D0B8D32914050F38FE0809302
:100C6000050090E080E00E945704C7CF8E3FC1F599
:100C7000109208001092070081E080930600C6EBF6
:100C8000D3E086EBA82E85E0B82E0E9469048993F4
:100C9000AC16BD06D1F780910700909108009E5FC9
:100CA000909308008093070020910900222319F0F7
:100CB00081159240E8F0809106008823C9F0809168
:100CC0000700909108009C012F5F3F4F3093080070
:100CD000209307008230924028F40E946904EFCFED
:100CE0008DE0BDCF90E080E00E9457041092060096
:100CF000C0920002D0920102E0920202F09203023E
:100D00004091B103412B4093B10381E07BCF4F92DF
:100D10005F926F927F928F929F92AF92BF92CF928B
:100D2000DF92EF92FF920F931F93CF93DF93EC012B
:100D3000423051056105710590F480E0DF91CF915B
:100D40001F910F91FF90EF90DF90CF90BF90AF90E9
:100D50009F908F907F906F905F904F9008958985BE
:100D60009A85AB85BC850196A11DB11D8417950799
:100D7000A607B70710F3CB88DC88ED88FE888F893B
:100D8000803109F042C0BB27A72F962F852F48013D
:100D900059012A013B01C80ED91EEA1EFB1E809193
:100DA000000290910102A0910202B0910302C816C4
:100DB000D906EA06FB0699F58F898031C1F5B301A2
:100DC000A201552766277727440F551F4A545C4FC9
:100DD000FA01918280828091B10381608093B10396
:100DE0008A89823080F08D819E81AF81B8858C0D9B
:100DF0009D1DAE1DBF1D8093B2039093B303A093BE
:100E0000B403B093B50381E099CFDB01CA01E7E0F9
:100E1000B695A79597958795EA95D1F7B8CF40E015
:100E2000C701B6010E94A7058111C6CF86CFB301C5
:100E3000A2014F77552766277727440F551F440F88
:100E4000551F4A545C4FFA0180829182A282B3827C
:100E5000C2CF8F929F92AF92BF92CF92DF92EF92CA
:100E6000FF920F931F93CF93DF93FC0181859285AF
:100E7000A385B4850196A11DB11D84179507A6070A
:100E8000B70770F480E0DF91CF911F910F91FF9031
:100E9000EF90DF90CF90BF90AF909F908F9008958C
:100EA00083889488A588B6888789803189F5BB278F
:100EB000A72F962F852FE9016A017B018F01BC01C5
:100EC000CD01680D791D8A1D9B1D809000029090B8
:100ED0000102A0900202B090030286169706A806AF
:100EE000B90601F5F8018789803111F5DD24EE247A
:100EF000FF24F601EE0FFF1FEA54FC4F8081918121
:100F0000B0E0A0E088839983AA83BB8381E0BBCF54
:100F1000DB01CA01C7E0B695A79597958795CA9555
:100F2000D1F7C9CF40E00E94A7058111DBCFAACF3E
:100F3000E894C7F8DD24EE24FF24F601EE0FFF1F2E
:100F4000EE0FFF1FEA54FC4F80819181A281B38193
:100F5000BF70D8CF8F929F92AF92BF92CF92DF9205
:100F6000EF92FF920F931F93CF93DF93EC018D814C
:100F700081110EC080E0DF91CF911F910F91FF9002
:100F8000EF90DF90CF90BF90AF909F908F9008959B
:100F90000B891C892D893E890417150726073707F9
:100FA00048F34A015B01823031F48A869B86AC8625
:100FB000BD8681E0E0CF81149104A104B10449F41D
:100FC0001E821F82188619861A861B861C861D861D
:100FD000F0CF0A851B852C853D85EB8DFC8D8585A5
:100FE00090E00996B901A8014150510961097109C0
:100FF000082E04C076956795579547950A94D2F7C1
:1010000075016401E1E0CE1AD108E108F10804C0DD
:10101000F694E794D794C7948A95D2F7C416D50668
:10102000E606F70620F0012B022B032B11F58F8922
:10103000988DA98DBA8D8E839F83A887B9878E01DD
:101040000A5F1F4FC114D104E104F10409F4ADCFCC
:101050004E815F816885798598018B8D9C8D0E947A
:10106000290791E0C91AD108E108F1088111EACFF6
:1010700081CFC41AD50AE60AF70AE1CF3F924F9210
:101080005F926F927F928F929F92AF92BF92CF9218
:10109000DF92EF92FF920F931F93CF93DF93CDB721
:1010A000DEB72C970FB6F894DEBF0FBECDBF5C0144
:1010B000DC015B968D909C905C9716964D905D90B0
:1010C0006D907C901997411451046104710409F4E6
:1010D00068C0BFEF4B1A5B0A6B0A7B0A312CF40124
:1010E00081859285A385B4859C01AD012F5F3F4F1B
:1010F0004F4F5F4F29873A874B875C8773016201A7
:101100001D821E821F821886F40181859285A38527
:10111000B4852D813E814F815885281739074A07AC
:101120005B0708F056C089859A85AB85BC858C1510
:101130009D05AE05BF0550F482E0C82ED12CE12CF0
:10114000F12C92E0492E512C612C712C9E012F5FC5
:101150003F4FB701A601C4010E9429078823C9F1A6
:1011600089819A81AB81BC81892B8A2B8B2B09F1D8
:10117000260137019FEF491A590A690A790A2D8118
:101180003E814F8158852F5F3F4F4F4F5F4F2D83DB
:101190003E834F8358873FEFC31AD30AE30AF30A0B
:1011A000B3CFF40140805180628073803324339444
:1011B00096CFC414D504E604F70409F70FEF1FEF28
:1011C0002FEF3FE0B701A601C4010E9487068111FD
:1011D00019C080E02C960FB6F894DEBF0FBECDBFCD
:1011E000DF91CF911F910F91FF90EF90DF90CF9003
:1011F000BF90AF909F908F907F906F905F904F9037
:101200003F900895D50116964D915D916D917C9119
:101210001997411551056105710539F0970186014E
:10122000C4010E9487068823A1F2D5011696CD92AB
:10123000DD92ED92FC921997332051F0D701C6014F
:101240000196A11DB11DF40180839183A283B38314
:10125000F5018789908DA18DB28D892B8A2B8B2BDF
:1012600039F48481C78AD08EE18EF28E80688483BF
:10127000F50184818062848381E0ACCF1F93CF939A
:10128000DF93EC01162F8C8187FF2AC06E857F8546
:101290008889998941E00E94A705882361F1EA893C
:1012A00080E2E89FF0011124EA54FC4F309719F1D5
:1012B0008D81823040F48B899C89AD89BE89848F71
:1012C000958FA68FB78F8F89988D938F828F8F89F7
:1012D000988DA98DBA8DB58BA48B8C818F778C83DB
:1012E000111103C08C818F7E8C83812FDF91CF9170
:1012F0001F910C947E0580E0DF91CF911F9108959E
:101300001F93CF93DF93EC018D81813031F090E01A
:1013100080E0DF91CF911F9108958C8181FFF7CFFD
:1013200082FD1BC090E080E00E9445040E94690499
:10133000182F90E080E00E9457041F3F41F78C81F6
:1013400085FF1EC08D81882321F060E0CE010E94C0
:101350003E098C818F7D8C83DACF4B895C896D89C6
:101360007E898A859B85AC85BD8584179507A607F0
:10137000B707C1F2CE010E94AA078111D3CFC7CF10
:101380004091B2035091B3036091B4037091B503DF
:10139000452B462B472B21F080E00E945C05B7CF00
:1013A00080618C832A853B85317080E092E0821BCE
:1013B000930BAFCF9F92AF92BF92CF92DF92EF92FB
:1013C000FF920F931F93CF93DF9300D01F921F9232
:1013D000CDB7DEB78C016D83DC0115968C91159726
:1013E000813009F0B9C014968C9181FFB5C082FD9F
:1013F0009FC0D8015B96ED91FC915C971A96AD90D9
:10140000BD90CD90DC901D9794809A94B601A50173
:1014100089E076956795579547958A95D1F79422F7
:10142000B1E0BB22992009F49FC0D8015B96ED91F1
:10143000FC915C971696CD90DD90ED90FC901997FD
:10144000B2E0CB1AD108E108F108858504C0CC0CC4
:10145000DD1CEE1CFF1C8A95D2F7468557856089F6
:101460007189C40ED51EE61EF71EC90CD11CE11CE5
:10147000F11CA114B10409F00AC1F8014285538599
:101480006485758583899489A589B6894817590724
:101490006A077B0708F4FBC081E00E947E05882371
:1014A00009F45AC0C0920002D0920102E0920202F6
:1014B000F09203028091B10381608093B103F50142
:1014C000EA54FC4F8D818083F80182859385A48541
:1014D000B5850196A11DB11D82879387A487B58725
:1014E0004389548965897689481759076A077B07B4
:1014F00038F42481838B948BA58BB68B206824834E
:10150000D80114968C9183FD9FC081E090E00F90EC
:101510000F900F900F900F90DF91CF911F910F912F
:10152000FF90EF90DF90CF90BF90AF909F90089585
:10153000F801438954896589768982859385A485D4
:10154000B585481759076A077B0709F452CFC801C8
:101550000E94AA0781114DCF81E090E0D801139637
:101560009C938E93129749C0D80116964D915D9128
:101570006D917C911997A114B10409F071C04115C6
:1015800051056105710589F557968D919D910D90D5
:10159000BC91A02D0097A105B10509F04FC0C8016D
:1015A0000E943E088823C1F2D8015B96ED91FC9120
:1015B0005C971696CD90DD90ED90FC901997B2E077
:1015C000CB1AD108E108F108858504C0CC0CDD1CDC
:1015D000EE1CFF1C8A95D2F7468557856089718974
:1015E000C40ED51EE61EF71E48CF9E012F5F3F4F4B
:1015F000CF010E942907811103C090E080E087CFCE
:1016000089819A81AB81BC81F801238D348DF901E8
:10161000278948EF5FEF60E070E0203121F048EF6C
:101620005FEF6FEF7FE084179507A607B70730F0ED
:10163000C8010E943E088111F8CE8ECFF801868342
:101640009783A087B187F1CEF8018581882309F4BB
:1016500083CF61E0C8010E943E09811156CF7CCF43
:101660006A017B01B2E0CB1AD108E108F108858557
:1016700004C0CC0CDD1CEE1CFF1C8A95D2F74685FD
:10168000578560897189C40ED51EE61EF71E41E09C
:10169000C701B6010E94A705811111CF5DCF089542
:1016A000CF93DF93EC016991662329F087E29AE0FA
:1016B0000E94AD03F8CFDF91CF910895EF92FF9292
:1016C0001F93CF93DF9300D0CDB7DEB77C01FC0131
:1016D000118119821A821B826DE087E29AE00E94D2
:1016E000AD036AE087E29AE00E94AD0382E0F70171
:1016F000E80FF11D9081992319F019278F5FF7CF1B
:10170000E12F17FF02C0EFE0E10FE595E595E595C4
:10171000E5950E2E000CFF0BEC5FFD4F8081898359
:10172000E12FEF78E7FF03C0E150E06FEF5F0E2E8F
:10173000000CFF0BEC5FFD4F80818A831B82C70189
:101740000E94500B6AE287E29AE00E94AD03CE014C
:1017500001960E94500B6DE087E29AE00E94AD0373
:101760006AE087E29AE00E94AD030F900F900F901D
:10177000DF91CF911F91FF90EF900895FC010190B0
:101780000020E9F73197AF01481B590BBC018FE3EB
:1017900099E00C947D018F929F92AF92BF920F932C
:1017A0001F93CF93DF93CDB7DEB7A1970FB6F89411
:1017B000DEBF0FBECDBF19A2423008F44AE08E0151
:1017C0000F5D1F4F842E912CB12CA12CA5019401EB
:1017D0000E940313E62FB901CA01EA30F4F4E05D78
:1017E000D801EE938D01232B242B252B79F790E044
:1017F00080E0109719F0CD010E94BE0BA1960FB6A4
:10180000F894DEBF0FBECDBFDF91CF911F910F9136
:10181000BF90AF909F908F900895E95CE1CFCF93F8
:10182000DF930E94BE0BEC0184E492E00E94BE0BA9
:101830008C0F9D1FDF91CF9108951F920F920FB6CD
:101840000F9211240BB60F922F933F934F935F93F8
:101850006F937F938F939F93AF93BF93EF93FF9378
:101860008FE399E00E94F101FF91EF91BF91AF9159
:101870009F918F917F916F915F914F913F912F91A8
:101880000F900BBE0F900FBE0F901F9018951F92D8
:101890000F920FB60F9211240BB60F922F938F93C6
:1018A0009F93EF93FF93E0914F09F091500980814E
:1018B000E0915509F091560982FD1DC090818091FB
:1018C00058098F5F8F7320915909821741F0E09179
:1018D0005809F0E0E15CF64F958F80935809FF912D
:1018E000EF919F918F912F910F900BBE0F900FBE94
:1018F0000F901F9018958081F2CF1F920F920FB614
:101900000F9211242F933F938F939F93AF93BF9385
:1019100080913B0990913C09A0913D09B0913E090D
:101920003091F60523E0230F2D3758F50196A11DC0
:10193000B11D2093F60580933B0990933C09A09339
:101940003D09B0933E098091F7059091F805A0916B
:10195000F905B091FA050196A11DB11D8093F70517
:101960009093F805A093F905B093FA05BF91AF9154
:101970009F918F913F912F910F900FBE0F901F90CD
:10198000189526E8230F0296A11DB11DD2CF1F92F4
:101990000F920FB60F9211240BB60F922F933F9315
:1019A0004F935F936F937F938F939F93AF93BF9367
:1019B000EF93FF93E091FD05F091FE05309749F01C
:1019C000A685B7858585968D91FF16C09C91892344
:1019D000B1F4FF91EF91BF91AF919F918F917F9162
:1019E0006F915F914F913F912F910F900BBE0F9090
:1019F0000FBE0F901F9018959C91892351F7A389D2
:101A0000B4899C918589809589238C93868997894F
:101A10000197F1F7608D718DA685B785558538E002
:101A200020E0CB010197F1F7822F90E09595879503
:101A3000282F4C91452309F02068315091F7868D6D
:101A400081FD20958091FC0590E001968F73992788
:101A50003091FB05381799F0A091FC05B0E0AA542D
:101A6000BA4F2C938093FC05828D938D0197F1F7EB
:101A7000A389B4898C919589892B8C93AACF868D63
:101A80008160868FF1CF0F931F93CF93DF931092D6
:101A900042091092410988EE93E0A0E0B0E0809303
:101AA000430990934409A0934509B093460928E15E
:101AB00032E03093400920933F0925EC30E0309329
:101AC0004C0920934B0924EC30E030934E092093CD
:101AD0004D0920EC30E03093500920934F0921EC60
:101AE00030E0309352092093510922EC30E03093DA
:101AF00054092093530926EC30E030935609209383
:101B00005509109258091092590910925A091092C9
:101B10005B0920E52093DC091092DD091092E309AE
:101B20001092E4091092E7091092E90942E050E0AE
:101B300060E070E04093EA095093EB096093EC0990
:101B40007093ED091092010A10920B0A10920A0A82
:101B50002AE232E03093090A2093080A10920D0A13
:101B600010922A0A1092290A80932B0A90932C0A29
:101B7000A0932D0AB0932E0A86E392E09093280A50
:101B80008093270A10923E0A10923D0A1092400A52
:101B900010923F0A1092420A1092410A1092440A8F
:101BA0001092430A6091450A6E7F6D7F6093450AEB
:101BB0006695617081E0682783E00E94B1024DE480
:101BC00052E0FA01649187E092E0FC012491222323
:101BD00099F030E0220F331FF901E053FE4FA59139
:101BE000B491F901E651FE4F259134912FB7F89445
:101BF0003C91632B6C932FBFFA0144914093370AB9
:101C0000FC018491E82FF0E0EE0FFF1FE651FE4F3C
:101C1000859194919093390A8093380A0CE412E0EC
:101C2000F8012491C6E0D2E0FE0184918823C9F036
:101C300090E0880F991FFC01E053FE4FA591B491ED
:101C4000FC01E651FE4F459154913FB7F8949C91A9
:101C5000822F809598239C93FA0190818923808319
:101C60003FBF8091450A81FD04C061E082E00E948F
:101C7000B10282E08093330AF80104910093340AA0
:101C8000FE01C491EC2FF0E0EE0FFF1FEA54FE4F6F
:101C9000859194919093360A8093350ADF91CF9184
:101CA0001F910F910895CF93DF93CDB7DEB7639760
:101CB0000FB6F894DEBF0FBECDBF789484B58260B6
:101CC00084BD84B5816084BD85B5826085BD85B5E0
:101CD000816085BD80916E00816080936E0010925E
:101CE00081008091810082608093810080918100D9
:101CF000816080938100809180008160809380006A
:101D00008091B10084608093B1008091B0008160C7
:101D10008093B000809191008260809391008091C7
:101D20009100816080939100809190008160809308
:101D300090008091A10082608093A1008091A10019
:101D400081608093A1008091A00081608093A000B9
:101D50008091210182608093210180912101816025
:101D600080932101809120018160809320018091E6
:101D70007A00846080937A0080917A0082608093F8
:101D80007A0080917A00816080937A0080917A0055
:101D9000806880937A001092C10068EE73E080E062
:101DA00090E00E94620387E492E00E940F0CE091B1
:101DB0004F09F091500982E08083E0914B09F09146
:101DC0004C091082E0914D09F0914E0980E1808329
:101DD00010925709E0915309F091540986E08083ED
:101DE000E0915109F0915209808180618083E091F6
:101DF0005109F0915209808188608083E0915109F6
:101E0000F0915209808180688083E0915109F091BE
:101E1000520980818F7D808387E692E00E940F0CBB
:101E20001092420A1092410A1092400A10923F0A00
:101E300010923E0A10923D0A8FE190E09093440A7E
:101E40008093430A8091330A96EF980F943048F0BC
:101E50002EEC280F243028F022EC280F283008F030
:101E600061C021E030E030933E0A20933D0A2DE12D
:101E700030E03093400A20933F0A2DE030E0309369
:101E8000420A2093410A943050F02EEC280F24305F
:101E900030F022EC280FF0E0E0E0283010F4E8E623
:101EA000F0E02081943028F032EC380F383008F41C
:101EB00035C131E0232B943048F09EEC980F9430DC
:101EC00028F08E53F0E0E0E0883010F4E8E6F0E02F
:101ED00020832091330A36EF320F343008F420C1CA
:101EE0008EEC820F843008F41BC182EC820F8830A4
:101EF00008F019C18DE690E090933B0A80933A0A6E
:101F0000343008F013C12650330B81E001C0880F34
:101F10002A95EAF780933C0A8091430A9091440AFB
:101F20000197F1F78091410A9091420A892B49F17A
:101F3000E091FD05F091FE054AE0E732F40709F172
:101F4000309739F0A389B4899C918589809589233C
:101F50008C938091450A8E7F8093450A1092FC05F0
:101F60001092FB0587E29AE09093FE058093FD05B1
:101F7000E0913A0AF0913B0A808190913C0A892BCA
:101F800080838BE892E00E940F0C87EA92E00E9427
:101F90005E0B82EB92E00E940F0C83ED92E00E94B8
:101FA0005E0B87E692E00E940F0C82E093E00E94B5
:101FB0005E0B82E193E00E940F0C88E393E00E94A5
:101FC0005E0B64EF71E080E090E00E94620386E4C3
:101FD00093E00E940F0C82E693E00E940F0C68EEE3
:101FE00073E080E090E00E94620382E993E00E9447
:101FF0000F0C10922C091092290910922A091092A4
:102000002B090FEF15E087E29AE00E940904892B63
:10201000D1F387E29AE00E942104F80181938F01B5
:10202000F9E00F311F0779F710921E098FEF95E045
:102030000E94BE0BEFEFF5E09F012F5F35408191CD
:10204000843209F08BC18081873409F087C1818196
:102050008E3419F0803509F081C18281823509F012
:102060007DC183818D3409F079C18481833409F085
:1020700075C1409127094A8B40901F095090200953
:10208000609021097090220980912809898B8090A5
:10209000230990902409A0902509B09026099091D9
:1020A0002C09988BE0902A09F0902B09E0912909DE
:1020B000EF87C90181509A4F1C0110E000E0F10147
:1020C00081911F01882309F44DC18C3209F0E1C0D0
:1020D0000F5F1F4F0130110509F063C0C12CD12CD7
:1020E000760141914F874423B1F1842F8D7F8C324B
:1020F00091F1AAE0B0E0A70196010E942D134F854F
:10210000242F440F330B205331096901330FEE089C
:10211000FF08C60ED71EE81EF91EE3CF34E0CACE74
:102120008BE690E0E9CE90E080E0E6CE88E02233D6
:1021300009F4F0CE84E0233309F4ECCE82E02433BA
:1021400009F4E8CE82EC820F883018F42E53330B5A
:10215000DCCE81E0DFCEC701B60120E137E240E00E
:1021600050E00E9403132B8B822F885F8F87C7015B
:10217000B60124E630E040E050E00E940313F62E62
:10218000CA01B90124E630E040E050E00E940313A8
:10219000E62E9F85983108F492CFEB89E051EF87C6
:1021A0008ECF0230110549F4F1E0F88BF101808106
:1021B000813409F484CF188A82CF0330110569F580
:1021C00020E030E0A901D1908CE2D816C9F0DD20E2
:1021D000B9F09EE2D916B9F3AAE0B0E00E942D133F
:1021E0002D2DDD0C330B205331094901330FAA0883
:1021F000BB08A5019401260F371F481F591FE3CFC5
:10220000CA01B9010E94611220E034E244E759E4B6
:102210000E94EF114B015C0152CF0430110519F4FB
:10222000F081F98B4CCF0530110569F520E030E0E5
:10223000A901D1908CE2D816C9F0DD20B9F09EE258
:10224000D916B9F3AAE0B0E00E942D132D2DDD0CB4
:10225000330B205331092901330F66087708A30196
:102260009201260F371F481F591FE3CFCA01B9013A
:102270000E94611220E034E244E759E40E94EF1129
:102280002B013C011CCF0630110519F4F081FA8BAB
:1022900016CF0C30110509F012CF809223099092CD
:1022A0002409A0922509B09226094989409328095A
:1022B00040921F09509220096092210970922209D0
:1022C0008F8580932909E0922A09F0922B09988939
:1022D00090932C09EA89E09327098EE0EFE1F9E079
:1022E000DE01119601900D928A95E1F78EE0FE01D4
:1022F0003196ADE2B9E001900D928A95E1F784E460
:1023000092E00E94BE0B8AEA93E00E94BE0B6091AD
:10231000370970E090E080E04AE00E94CB0B8EEA43
:1023200093E00E94BE0B6091380970E090E080E07D
:102330004AE00E94CB0B8EEA93E00E94BE0B6091B4
:10234000390970E090E080E04AE00E94CB0B84E421
:1023500092E00E94BE0B0E9480024BCE84818111CC
:102360006BCEBBCF8092230990922409A0922509BD
:10237000B0922609F989F093280940921F095092DA
:10238000200960922109709222094F854093290902
:10239000E0922A09F0922B09888980932C099A8966
:1023A000909327099ACF86E392E09093280A80932E
:1023B000270A8091FD059091FE0587529A4071F49D
:1023C000E0913A0AF0913B0A908180913C0A809515
:1023D000892380831092FE051092FD0508950E94C6
:1023E00003120C94B5120E94AE1258F00E94A7126C
:1023F00040F029F45F3F29F00C949E1251110C9487
:10240000E9120C94A4120E94C61268F39923B1F346
:10241000552391F3951B550BBB27AA27621773070A
:10242000840738F09F5F5F4F220F331F441FAA1F9E
:10243000A9F335D00E2E3AF0E0E832D0915050405A
:10244000E695001CCAF72BD0FE2F29D0660F771F08
:10245000881FBB1F261737074807AB07B0E809F0EE
:10246000BB0B802DBF01FF2793585F4F3AF09E3F73
:10247000510578F00C949E120C94E9125F3FE4F33E
:10248000983ED4F3869577956795B795F7959F5FB6
:10249000C9F7880F911D9695879597F90895E1E002
:1024A000660F771F881FBB1F621773078407BA0761
:1024B00020F0621B730B840BBA0BEE1F88F7E095BC
:1024C0000895E89409C097FB3EF490958095709527
:1024D00061957F4F8F4F9F4F9923A9F0F92F96E970
:1024E000BB279395F695879577956795B795F111E5
:1024F000F8CFFAF4BB0F11F460FF1BC06F5F7F4F82
:102500008F4F9F4F16C0882311F096E911C0772393
:1025100021F09EE8872F762F05C0662371F096E89C
:10252000862F70E060E02AF09A95660F771F881F6B
:10253000DAF7880F9695879597F9089597F99F6729
:1025400080E870E060E008959FEF80EC089500243B
:102550000A941616170618060906089500240A9408
:1025600012161306140605060895092E0394000C8E
:1025700011F4882352F0BB0F40F4BF2B11F460FF1D
:1025800004C06F5F7F4F8F4F9F4F089557FD905846
:10259000440F551F59F05F3F71F04795880F97FB27
:1025A000991F61F09F3F79F08795089512161306E1
:1025B0001406551FF2CF4695F1DF08C01616170610
:1025C0001806991FF1CF8695710561050894089545
:1025D000E894BB2766277727CB0197F9089597FBE7
:1025E000072E16F4009407D077FD09D00E94381307
:1025F00007FC05D03EF4909581959F4F0895709506
:1026000061957F4F0895A1E21A2EAA1BBB1BFD0105
:102610000DC0AA1FBB1FEE1FFF1FA217B307E407C1
:10262000F50720F0A21BB30BE40BF50B661F771F19
:10263000881F991F1A9469F76095709580959095F9
:102640009B01AC01BD01CF010895EE0FFF1F881F54
:102650008BBF0790F691E02D19940E944C13A59F13
:10266000900DB49F900DA49F800D911D112408958D
:10267000AA1BBB1B51E107C0AA1FBB1FA617B707A8
:1026800010F0A61BB70B881F991F5A95A9F78095C4
:102690009095BC01CD010895A29FB001B39FC001E8
:1026A000A39F700D811D1124911DB29F700D811D7E
:1026B0001124911D089511E0C9E4D1E000E006C0A5
:1026C000802FFE010E9425132196011DCA34D107D7
:1026D00080E00807A9F7F894FFCFFFFFFFFF303134
:1026E00032333435363738394142434445460000A9
:1026F000000013027D01AA016002DB01B901CD01D6
:1027000000000000DA097D0180094F0B0000000085
:10271000AD037D014204AC030904210494030D0AB6
:102720000053657474696E672073657269616C200B
:10273000737065656420746F203131353230302E0E
:102740000053657474696E67204750532073657237
:1027500069616C20737065656420746F2031313558
:102760003230302E0053657474696E6720475053C1
:1027700020746F206E6F726D616C206D6F64652EBA
:102780000024504D544B3232352C30005365747454
:10279000696E67204E4D4541206F757470757420C9
:1027A0006672657175656E636965732E0024504DA0
:1027B000544B3331342C302C312C312C312C312CE6
:1027C000302C302C302C302C302C302C302C302C29
:1027D000302C302C302C302C302C300024504D54E8
:1027E0004B3235312C313135323030005365747411
:1027F000696E67206D65737361676520696E7465C6
:102800007276616C20746F2031207365636F6E6423
:102810002E0024504D544B3232302C3130303000A9
:10282000475053207374617274757020646F6E65C5
:1028300020636F72726563746C792E0043414E2081
:1028400052656164202D2054657374696E6720722F
:102850006563656976616C206F662043414E204256
:102860007573206D6573736167652E0042656769D6
:102870006E6E696E67207472616E736D69737369D1
:0A2880006F6E2E0054696D653A007A
:020000040003F7
:10E000000D9489F10D94B2F10D94B2F10D94B2F129
:10E010000D94B2F10D94B2F10D94B2F10D94B2F1F0
:10E020000D94B2F10D94B2F10D94B2F10D94B2F1E0
:10E030000D94B2F10D94B2F10D94B2F10D94B2F1D0
:10E040000D94B2F10D94B2F10D94B2F10D94B2F1C0
:10E050000D94B2F10D94B2F10D94B2F10D94B2F1B0
:10E060000D94B2F10D94B2F10D94B2F10D94B2F1A0
:10E070000D94B2F10D94B2F10D94B2F10D94B2F190
:10E080000D94B2F10D94B2F10D94B2F10D94B2F180
:10E090000D94B2F10D94B2F10D94B2F10D94B2F170
:10E0A0000D94B2F10D94B2F10D94B2F10D94B2F160
:10E0B0000D94B2F10D94B2F10D94B2F10D94B2F150
:10E0C0000D94B2F10D94B2F10D94B2F10D94B2F140
:10E0D0000D94B2F10D94B2F10D94B2F10D94B2F130
:10E0E0000D94B2F141546D656761323536300041AF
:10E0F000726475696E6F206578706C6F72657220DE
:10E1000073746B3530305632206279204D4C530099
:10E11000426F6F746C6F616465723E004875683F52
:10E1200000436F6D70696C6564206F6E203D200048
:10E130004350552054797065202020203D20005FF9
:10E140005F4156525F415243485F5F3D2000415658
:10E1500052204C696243205665723D20004743437C
:10E160002056657273696F6E203D20004350552024
:10E1700049442020202020203D20004C6F7720663D
:10E18000757365202020203D20004869676820665F
:10E190007573652020203D200045787420667573D6
:10E1A00065202020203D20004C6F636B2066757336
:10E1B000652020203D20004D617220203720323024
:10E1C000313300312E362E3800342E332E350056A2
:10E1D00023202020414444522020206F7020636F70
:10E1E00064652020202020696E73747275637469E1
:10E1F0006F6E2061646472202020496E74657272B3
:10E20000757074006E6F20766563746F7200726A49
:10E210006D702020006A6D70200057686174207056
:10E220006F72743A00506F7274206E6F7420737541
:10E2300070706F72746564004D7573742062652030
:10E2400061206C6574746572002000577269747483
:10E25000696E672045450052656164696E672045B7
:10E26000450045452065727220636E743D00504F35
:10E27000525400303D5A65726F2061646472003FF1
:10E280003D43505520737461747300403D454550C3
:10E29000524F4D207465737400423D426C696E6B41
:10E2A000204C454400453D44756D70204545505215
:10E2B0004F4D00463D44756D7020464C415348001B
:10E2C000483D48656C70004C3D4C69737420492F83
:10E2D0004F20506F72747300513D51756974005234
:10E2E0003D44756D702052414D00563D73686F7707
:10E2F00020696E7465727275707420566563746FF0
:10E30000727300593D506F727420626C696E6B00BD
:10E310002A0011241FBECFEFD1E2DEBFCDBF01E046
:10E320000CBF12E0A0E0B2E0EEE1FDEF03E00BBFB6
:10E3300002C007900D92A030B107D9F712E0A0E01B
:10E34000B2E001C01D92AE30B107E1F70F9460F367
:10E350000D948DFE01E20EBF0FEF0DBF11241FBE05
:10E360000D9460F30D9400F020E030E040ED57E0B4
:10E3700005C0FA013197F1F72F5F3F4F2817390792
:10E38000C0F308959C01260F311DC901A0E0B0E043
:10E390002F5F3F4FABBFFC018791882361F08093D3
:10E3A000C6008091C00086FFFCCF8091C0008064D1
:10E3B0008093C000EACF08958DE08093C6008091DD
:10E3C000C00086FFFCCF8091C00080648093C000B5
:10E3D0008AE08093C6008091C00086FFFCCF8091C8
:10E3E000C00080648093C00008950F94C2F10F9420
:10E3F000DCF10895FC019081992359F09093C600B7
:10E400008091C00086FFFCCF8091C0008064809323
:10E41000C0003196992379F70895282F982F929567
:10E420009F70892F805D8A3308F0895F8093C600D2
:10E430008091C00086FFFCCF8091C00080648093F3
:10E44000C000822F8F70982F905D9A3308F0995FEB
:10E450009093C6008091C00086FFFCCF8091C000E1
:10E4600080648093C00008959C01FB01853691056E
:10E470001CF46330710594F0C90164E670E00F94F8
:10E480002EFE605D7F4F6093C6008091C00086FFC6
:10E49000FCCF8091C00080648093C0002B30310598
:10E4A00014F43297B4F0C90164E670E00F942EFEC4
:10E4B0006AE070E00F942EFE605D7F4F6093C600AF
:10E4C0008091C00086FFFCCF8091C0008064809363
:10E4D000C000C9016AE070E00F942EFEC0968093E0
:10E4E000C6008091C00086FFFCCF8091C000806490
:10E4F0008093C00008951F93182F8EE692EE60E07F
:10E500000F94C2F11093C6008091C00086FFFCCF2B
:10E510008091C00080648093C0000F94DCF11F9153
:10E5200008952F923F924F925F926F927F928F92B7
:10E530009F92AF92BF92CF92DF92EF92FF920F9392
:10E540001F93DF93CF93CDB7DEB762970FB6F894E2
:10E55000DEBF0FBECDBF382E622ECA01DB015C01CB
:10E560006D01772420E2222E2E010894411C511CBB
:10E570008BC081E0A81680E0B80681E0C80680E084
:10E58000D80628F0C601AA27BB270F940DF2BB2797
:10E59000AD2D9C2D8B2D0F940DF28A2D0F940DF225
:10E5A0002092C6008091C00086FFFCCF8091C00001
:10E5B00080648093C0009DE29093C6008091C0006B
:10E5C00086FFFCCF8091C00080648093C0002092C1
:10E5D000C6008091C00086FFFCCF8091C00080649F
:10E5E0008093C00019828601750188249924A1E0D6
:10E5F0003A1651F03A1620F0B2E03B1661F409C029
:10E600000BBFF701779007C0C7010F9477FE782EF4
:10E6100002C0F7017080872D0F940DF22092C60082
:10E620008091C00086FFFCCF8091C0008064809301
:10E63000C000872D8052F401EF70F0708F3520F408
:10E64000E40DF51D708204C0E40DF51D8EE280839B
:10E650000894E11CF11C011D111D0894811C911CE2
:10E6600090E18916910409F0C2CF80E190E0A0E02A
:10E67000B0E0A80EB91ECA1EDB1E198AC2010F9493
:10E68000FAF10F94DCF16A94662009F072CF629679
:10E690000FB6F894DEBF0FBECDBFCF91DF911F91B3
:10E6A0000F91FF90EF90DF90CF90BF90AF909F9031
:10E6B0008F907F906F905F904F903F902F90089534
:10E6C0002F923F924F925F926F927F928F929F9282
:10E6D000AF92BF92CF92DF92EF92FF920F931F9370
:10E6E000DF93CF93CDB7DEB7CD53D1400FB6F894BB
:10E6F000DEBF0FBECDBF01E20EBF0FEF0DBF94B75F
:10E70000F894A89514BE80916000886180936000A1
:10E7100010926000789493FF05C0E0910002F091A0
:10E7200001021995279A2F9A8091C00082608093E8
:10E73000C00080E18093C40088E18093C1000000A4
:10E74000EE24FF24870144E0A42EB12CCC24DD2448
:10E7500024C0C5010197F1F70894E11CF11C011DCB
:10E76000111D21E2E2162EE4F20620E0020720E06D
:10E77000120718F031E0C32ED12CC801B70127ECE5
:10E780003BE140E050E00F9441FE611571058105C9
:10E79000910519F485B1805885B98091C00087FD35
:10E7A00003C0C114D104A9F2A6014F5F5F4FC25E3E
:10E7B000DE4F59834883CE51D140C25EDE4F8881FF
:10E7C0009981CE51D140019711F00D9410FEC05D9A
:10E7D000DE4F19821882C053D14060E0C15DDE4F28
:10E7E0001882CF52D14088249924C35DDE4F19820C
:10E7F0001882CD52D140C05EDE4F188219821A8233
:10E800001B82C052D140CE5CDE4F188219821A8220
:10E810001B82C253D140EE24FF2487010BBFF701B6
:10E8200007911691C45CDE4F19830883CC53D14005
:10E830000D940BFEC25EDE4F28813981CE51D1404E
:10E840002130310509F52091C600C25EDE4F1982E4
:10E850001882CE51D14022C02F5F3F4F4F4F5F4FA4
:10E86000213082E138078AE7480780E0580780F0C6
:10E87000C45CDE4FE881F981CC53D140EF5FFF4F9C
:10E8800019F0EE27FF27099420E030E040E050E047
:10E890008091C00087FFE0CF2091C600C35DDE4FAE
:10E8A00048815981CD52D1404F5F5F4FC35DDE4FEC
:10E8B00059834883CD52D140213209F063C64A3092
:10E8C000510508F05FC60894811C911C53E0851621
:10E8D000910409F059C600E010E018C081E280936D
:10E8E000C6008091C00086FFFCCF8091C00080648C
:10E8F0008093C0002F5F3F4F2931310579F70F9486
:10E90000DCF10F5F1F4F0530110519F020E030E0FA
:10E91000E5CF10920A0210920B0210920C02109294
:10E920000D02109206021092070210920802109235
:10E930000902109202021092030210920402109235
:10E9400005028FEE90EE60E00F94F5F180E191EE1C
:10E9500060E00F94C2F18091C00087FFFCCF9091DE
:10E96000C600903608F09F759032B8F09093C600BC
:10E970008091C00086FFFCCF8091C00080648093AE
:10E98000C000A0E2A093C6008091C00086FFFCCF2B
:10E990008091C00080648093C000983409F4D7C18E
:10E9A0009934B8F4923409F459C1933458F490333B
:10E9B00019F1903308F4E3C59F33A1F1903409F0C5
:10E9C000DEC5BDC0953409F470C1963409F0D7C5D1
:10E9D00098C1923509F42BC2933538F49C3409F46C
:10E9E000F5C1913509F0CBC518C2963509F445C279
:10E9F000993509F0C4C567C483E792EE62E00F94CD
:10EA0000F5F110920602109207021092080210927D
:10EA1000090210920A0210920B0210920C0210923C
:10EA20000D0213C18FE792EE62E00F94F5F18FEEC5
:10EA300090EE60E00F94F5F181E291EE60E00F94CA
:10EA4000C2F187EB91EE60E00F94F5F180E391EE77
:10EA500060E00F94C2F184EE90EE60E00F94F5F167
:10EA60008FE391EE60E00F94C2F186E090E061E008
:10EA700070E00F9434F20F94DCF18DE591EE60E0DC
:10EA80000F94C2F189EC91EE60E00F94F5F18EE401
:10EA900091EE60E00F94C2F183EC91EE60E00F9490
:10EAA000F5F18CE691EE60E00F94C2F18EE10F94E7
:10EAB0000DF288E90F940DF281E00F940DF20F949E
:10EAC000DCF18BE791EE60E00F94C2F119E0E0E039
:10EAD000F0E010935700E4918E2F0F940DF20F94F5
:10EAE000DCF18AE891EE60E00F94C2F1E3E0F0E03F
:10EAF00010935700E4918E2F0F940DF20F94DCF1D8
:10EB000089E991EE60E00F94C2F1E2E0F0E0109349
:10EB10005700E4918E2F0F940DF20F94DCF188EAE8
:10EB200091EE60E00F94C2F1E1E0F0E01093570045
:10EB30001491812F0F940DF20F94DCF107CF8BE825
:10EB400092EE62E00F94F5F18BE492EE60E00F94A8
:10EB5000F5F10F94DCF100E010E019C0C8016F2D51
:10EB60000F947FFEFF2031F489E492EE60E00F9471
:10EB7000C2F10BC0F092C6008091C00086FFFCCFAE
:10EB80008091C00080648093C0000F5F1F4FC80158
:10EB900081519F41A0E0B0E0ABBFFC01F790BAE229
:10EBA000FB1621F0E2E000301E07C1F60F94DCF105
:10EBB0000F94DCF187E592EE60E00F94F5F10F948D
:10EBC000DCF1CC24DD2400E010E01EC0C8010F946D
:10EBD00077FEF82E882331F489E492EE60E00F94FA
:10EBE000C2F10BC08093C6008091C00086FFFCCFAD
:10EBF0008091C00080648093C000FE1419F00894D6
:10EC0000C11CD11C0F5F1F4FC80181519F41A0E063
:10EC1000B0E0ABBFFC01E790FAE2EF1621F022E092
:10EC20000030120799F60F94DCF10F94DCF182E6C4
:10EC300092EE60E00F94C2F1C60161E070E00F94C3
:10EC400034F20F94DCF10F94DCF110920202109276
:10EC50000302109204021092050278CE89E992EE26
:10EC600062E00F94F5F1279A2F9A16C02F9880E052
:10EC700090E0E0EDF7E03197F1F7019684369105E9
:10EC8000C1F72F9A80E090E0E0EDF7E03197F1F7DF
:10EC9000019684369105C1F78091C00087FFE6CFC9
:10ECA0008091C00087FFFCCF64C485EA92EE62E0E9
:10ECB0000F94F5F140910202509103026091040219
:10ECC0007091050281E020E10F9491F2809102029F
:10ECD00090910302A0910402B091050280509F4FD1
:10ECE000AF4FBF4F8093020290930302A0930402A0
:10ECF000B093050280509041A040B04008F426CE69
:10ED0000A4CF83EB92EE62E00F94F5F140910602FE
:10ED100050910702609108027091090280E020E1A1
:10ED20000F9491F28091060290910702A09108023F
:10ED3000B091090280509F4FAF4FBF4F80930602A2
:10ED400090930702A0930802B0930902FFCD80ECD4
:10ED500092EE62E00F94F5F183E792EE60E00F949B
:10ED6000F5F18FE792EE60E00F94F5F18BE892EE0B
:10ED700060E00F94F5F189E992EE60E00F94F5F10F
:10ED800085EA92EE60E00F94F5F183EB92EE60E09D
:10ED90000F94F5F180EC92EE60E00F94F5F187ECC2
:10EDA00092EE60E00F94F5F188ED92EE60E00F9442
:10EDB000F5F18FED92EE60E00F94F5F18AEE92EEB0
:10EDC00060E00F94F5F183E093EEBDCD87EC92EE19
:10EDD00062E00F94F5F181E40F947BF282E40F94EA
:10EDE0007BF283E40F947BF284E40F947BF285E45E
:10EDF0000F947BF286E40F947BF287E40F947BF20E
:10EE000088E40F947BF28AE40F947BF28BE40F94F6
:10EE10007BF28CE40F947BF299CD88ED92EE62E068
:10EE20000F94F5F1772473948824992409C48FED05
:10EE300092EE62E00F94F5F140910A0250910B02BC
:10EE400060910C0270910D0282E020E10F9491F22A
:10EE500080910A0290910B02A0910C02B0910D02D8
:10EE600080509F4FAF4FBF4F80930A0290930B0289
:10EE7000A0930C02B0930D0269CD8AEE92EE62E08F
:10EE80000F94F5F184EE90EE60E00F94F5F18FECC5
:10EE900091EE60E00F94F5F1662477244301CC5D98
:10EEA000DE4F19821882C452D140D401C301B695F5
:10EEB000A79597958795CA5DDE4F88839983AA8326
:10EEC000BB83C652D140CC5DDE4FA881B981C4520C
:10EED000D1401196CC5DDE4FB983A883C452D14096
:10EEE000CD0162E070E00F9434F2B0E2B093C6005E
:10EEF0008091C00086FFFCCF8091C0008064809329
:10EF0000C000EDE2E093C6008091C00086FFFCCF18
:10EF10008091C00080648093C000F0E2F093C6004E
:10EF20008091C00086FFFCCF8091C00080648093F8
:10EF3000C000CA5DDE4FE880F9800A811B81C6529D
:10EF4000D140BB27A12F902F8F2D0F940DF2CA5DBA
:10EF5000DE4F8881C652D1400F940DF2B0E2FB2EF5
:10EF6000F092C6008091C00086FFFCCF8091C00067
:10EF700080648093C0000DE30093C6008091C000C0
:10EF800086FFFCCF8091C00080648093C00010E2B7
:10EF90001093C6008091C00086FFFCCF8091C00016
:10EFA00080648093C0008BBEF3012791C65DDE4F65
:10EFB0002883CA52D140A22EBB24CC24DD2408943D
:10EFC000611C711C811C911C8BBEF3018791282E42
:10EFD0003324442455240894611C711C811C911C09
:10EFE0008BBEF3013791C55DDE4F3883CB52D140E4
:10EFF0000894611C711C811C911C8BBEF30147910C
:10F00000C45DDE4F4883CC52D140ADEFEA2EAFEF66
:10F01000FA2EAFEF0A2FAFEF1A2F6E0C7F1C801E57
:10F02000911E142D032DF22CEE24EA0CFB1C0C1D5A
:10F030001D1D0F940DF220E22093C6008091C000A8
:10F0400086FFFCCF8091C00080648093C000C65DC5
:10F05000DE4F8881CA52D1400F940DF230E23093D6
:10F06000C6008091C00086FFFCCF8091C000806404
:10F070008093C000C45DDE4F8881CC52D1400F9494
:10F080000DF240E24093C6008091C00086FFFCCFA5
:10F090008091C00080648093C000C55DDE4F888190
:10F0A000CB52D1400F940DF250E25093C6008091A4
:10F0B000C00086FFFCCF8091C00080648093C000B8
:10F0C0008FEFE8168FEFF80680E0080780E018075A
:10F0D00031F484E092EE60E00F94C2F1DFC0D80119
:10F0E000C7018070907CA070B0708050904CA040A0
:10F0F000B040D1F52FEF3FE340E050E0E222F322B1
:10F1000004231523CA5DDE4FA880B980CA80DB8046
:10F11000C652D140AE0CBF1CC01ED11EAA0CBB1CD7
:10F12000CC1CDD1C8EE092EE60E00F94C2F1BB2798
:10F13000A12F902F8F2D0F940DF28E2D0F940DF285
:10F1400030E23093C6008091C00086FFFCCF8091F2
:10F15000C00080648093C0004EE34093C60080915D
:10F16000C00086FFFCCF87C08EE09EEFA0E0B0E03D
:10F17000E822F9220A231B239CE0E91694E9F90608
:10F1800090E0090790E0190709F088C0C45DDE4FE0
:10F19000A881CC52D140EA2EFF2400E010E0102FCD
:10F1A0000F2DFE2CEE24C55DDE4FB881CB52D14031
:10F1B000EB0EF11C011D111DD601C501817090706F
:10F1C000A070B070DC0199278827E80EF91E0A1F8D
:10F1D0001B1F20EF30E040E050E0A222B322C42207
:10F1E000D52241E1AA0CBB1CCC1CDD1C4A95D1F7F1
:10F1F000EA0CFB1C0C1D1D1D81E090E0A0E0B0E0BE
:10F20000282239224A225B2235E1220C331C441C7D
:10F21000551C3A95D1F7E20CF31C041D151D57013E
:10F220006801AA0CBB1CCC1CDD1C85E192EE60E0E1
:10F230000F94C2F1C801AA27BB270F940DF2BB2778
:10F24000A12F902F8F2D0F940DF28E2D0F940DF274
:10F2500090E29093C6008091C00086FFFCCF809121
:10F26000C00080648093C000AEE3A093C60080918C
:10F27000C00086FFFCCF8091C00080648093C000F6
:10F28000C601AA27BB270F940DF2BB27AD2D9C2DDD
:10F290008B2D0F940DF28A2D0F940DF20F94DCF14B
:10F2A000CC5DDE4FE881F981C452D140F99709F471
:10F2B0004DCBF4E0EF2EF12C012D112D6E0C7F1CA7
:10F2C000801E911EF2CD83E093EE62E00F94F5F183
:10F2D0008AE192EE60E00F94C2F18091C00087FF56
:10F2E000FCCF1091C6001F751093C6008091C0001E
:10F2F00086FFFCCF8091C00080648093C0000F9493
:10F30000DCF1812F81548A3108F036C1163409F4BA
:10F3100095C0173490F4133409F44EC0143430F40B
:10F320001134F1F0123409F01DC130C0143409F465
:10F3300059C0153409F016C16BC01A3409F4C4C0A1
:10F340001B3438F4173409F48FC0183409F00AC19B
:10F35000A1C01B3409F4D2C01C3409F003C1E8C0B9
:10F360008FEF81B90DC082B1809582B980E090E0C5
:10F37000E0EDF7E03197F1F70196883C9105C1F790
:10F380008091C00087FFEFCF12B8EFC08FEF84B934
:10F390000DC085B1809585B980E090E0E0EDF7E0A3
:10F3A0003197F1F70196883C9105C1F78091C00033
:10F3B00087FFEFCF15B8D9C08FEF87B90DC088B1DF
:10F3C000809588B980E090E0E0EDF7E03197F1F7C3
:10F3D0000196883C9105C1F78091C00087FFEFCF6F
:10F3E00018B8C3C08FEF8AB90DC08BB180958BB9A7
:10F3F00080E090E0E0EDF7E03197F1F70196883C8E
:10F400009105C1F78091C00087FFEFCF1BB8ADC059
:10F410008FEF8DB90DC08EB180958EB980E090E0F0
:10F42000E0EDF7E03197F1F70196883C9105C1F7DF
:10F430008091C00087FFEFCF1EB897C08FEF80BBD1
:10F440000DC081B3809581BB80E090E0E0EDF7E0F6
:10F450003197F1F70196883C9105C1F78091C00082
:10F4600087FFEFCF11BA81C08FEF83BB0DC084B38C
:10F47000809584BB80E090E0E0EDF7E03197F1F714
:10F480000196883C9105C1F78091C00087FFEFCFBE
:10F4900014BA6BC08FEF809301010FC080910201FD
:10F4A00080958093020180E090E0E0EDF7E03197F5
:10F4B000F1F70196883C9105C1F78091C00087FF64
:10F4C000EDCF1092020151C08FEF809304010FC065
:10F4D0008091050180958093050180E090E0E0ED4A
:10F4E000F7E03197F1F70196883C9105C1F78091DB
:10F4F000C00087FFEDCF1092050137C08FEF8093DA
:10F5000007010FC08091080180958093080180E079
:10F5100090E0E0EDF7E03197F1F70196883C910536
:10F52000C1F78091C00087FFEDCF109208011DC088
:10F530008FEF80930A010FC080910B01809580931B
:10F540000B0180E090E0E0EDF7E03197F1F70196F4
:10F55000883C9105C1F78091C00087FFEDCF1092E4
:10F560000B0103C085E292EEEEC98091C00087FFD7
:10F57000FCCF8091C600EAC988E392EEE4C98CE131
:10F5800091EEE1C988249924933011F1943028F444
:10F59000913089F09230B8F408C0953061F195301F
:10F5A000F0F0963009F048C043C02B3109F042C951
:10F5B00091E06BE13FC96227C15DDE4F2883CF52E6
:10F5C000D14092E037C9B22FA0E0622793E032C960
:10F5D000822F90E0A82BB92B622794E02BC92E3004
:10F5E00009F039C3622795E0C05DDE4F19821882A9
:10F5F000C053D1401FC9E1E0F0E0EC0FFD1FC05D3A
:10F60000DE4F08811981C053D140E00FF11F2083E4
:10F610000F5F1F4FC05DDE4F19830883C053D14079
:10F6200062270A171B0709F005C9D80196E002C92D
:10F63000261709F010C303C0973009F0FBC87724E0
:10F640009981933109F412C19431C8F4963009F4C8
:10F65000D8C0973050F4923009F406C1933009F4C1
:10F660006DC0913009F059C253C0913109F477C08F
:10F67000923108F0BBC0903109F04FC2F5C098310B
:10F6800009F487C0993150F4953109F4EFC09531F0
:10F6900008F4C6C1963109F040C2C2C19A3109F4DA
:10F6A0006CC09A3108F491C09B3109F45BC09D3164
:10F6B00009F033C29D81903359F48F81882311F46E
:10F6C0009EE11CC0813011F091E018C098E916C08D
:10F6D000892F807591F0903539F4E0E0F0E089E011
:10F6E0008093570094910AC0983539F4E3E0F0E034
:10F6F00089E080935700949101C090E01A821B82A8
:10F700008D818C831D829E831F8227E030E009C299
:10F710001A8288E08B8381E48C8386E58D8382E581
:10F720008E8389E48F8383E5888780E589878FE5E9
:10F730008A8782E38B872BE030E0F3C18A818139AD
:10F7400041F0823941F0803911F48FE005C080E04A
:10F7500003C082E001C08AE01A828B8344C0772410
:10F76000739482C08D81882311F48EE12CC0813086
:10F7700011F081E028C088E926C01A82E1E0F0E0BB
:10F7800089E08093570084918B831C8224E030E0D1
:10F79000C8C18B81803589F48C81883039F4E2E0EE
:10F7A000F0E089E08093570084910DC0E0E0F0E044
:10F7B00089E080935700849106C0E3E0F0E089E09F
:10F7C0008093570084911A82DFCF8D81836C99E0FA
:10F7D000E1E0F0E0082E90935700E89507B600FCB2
:10F7E000FDCF1A821B8223E030E09BC180EC8A832C
:10F7F000CE5CDE4F188219821A821B82C253D1401E
:10F800008EC18A8190E0A0E0B0E0582F44273327D2
:10F8100022278B8190E0A0E0B0E0DC0199278827C7
:10F82000282B392B4A2B5B2B8D8190E0A0E0B0E098
:10F83000282B392B4A2B5B2B8C8190E0A0E0B0E089
:10F84000BA2FA92F982F8827282B392B4A2B5B2BCF
:10F85000220F331F441F551FC05EDE4F288339839C
:10F860004A835B83C052D1401A8259C13A81C95C34
:10F87000DE4F3883C753D140CA5CDE4F1882C6536F
:10F88000D1408B81C82EDD24CA5CDE4F488159816E
:10F89000C653D140C42AD52A933109F082C0CE5C28
:10F8A000DE4F88819981AA81BB81C253D1408050AB
:10F8B000904CA340B04030F583E0CE5CDE4FE88052
:10F8C000F9800A811B81C253D140F70100935B008C
:10F8D00080935700E89507B600FCFDCFCE5CDE4F65
:10F8E000088119812A813B81C253D14000501F4FAA
:10F8F0002F4F3F4FCE5CDE4F088319832A833B8313
:10F90000C253D140C05EDE4F488159816A817B81FC
:10F91000C052D140DE011B9631E08C9111962C91A2
:10F9200011971296C75CDE4F2883C953D140C85C3B
:10F93000DE4F1882C853D14090E0C85CDE4FE881AA
:10F94000F981C853D1408E2B9F2B0C01FA01609393
:10F950005B0030935700E89511244E5F5F4F6F4F67
:10F960007F4F0EEFE02E0FEFF02ECE0CDF1CC114F8
:10F97000D10499F685E0C05EDE4F088119812A81A5
:10F980003B81C052D140F80120935B008093570027
:10F99000E89507B600FCFDCF81E180935700E8951C
:10F9A00035C0C05EDE4F88819981AA81BB81C0527B
:10F9B000D140B695A795979587957C018601ABE0D8
:10F9C000AA2EB12CAC0EBD1E0BC0D5016D915D01F0
:10F9D000C7010F947FFE0894E11CF11C01501040F8
:10F9E0000115110591F7A60160E070E0440F551F65
:10F9F000661F771FC05EDE4FE880F9800A811B8199
:10FA0000C052D1404E0D5F1D601F711F1A82C05E33
:10FA1000DE4F488359836A837B83C052D1407FC0C5
:10FA2000FA80C55CDE4FF882CB53D140C65CDE4F16
:10FA30001882CA53D1408B81C82EDD24C65CDE4FAC
:10FA400008811981CA53D140C02AD12A1A828981DA
:10FA5000BE016D5F7F4F843121F59601C05EDE4FA0
:10FA6000E880F9800A811B81C052D1400BBFF701A9
:10FA700087919691DB018C9311969C936E5F7F4FDB
:10FA8000D801C7010296A11DB11DC05EDE4F88835B
:10FA90009983AA83BB83C052D14022503040F1F6F3
:10FAA00036C0C05EDE4F288139814A815B81C052F9
:10FAB000D1400894C108D108760100E010E0089414
:10FAC000C11CD11C0894E11CF11C011D111DE20E8A
:10FAD000F31E041F151F21BDBB27A52F942F832FB5
:10FAE00082BD2F5F3F4F4F4F5F4FF89A80B5DB01CC
:10FAF0008D93BD012E153F054007510761F7C05E8C
:10FB0000DE4F288339834A835B83C052D1409601FC
:10FB10002D5F3F4FFB01108204C080EC8A8322E0FE
:10FB200030E08BE18093C6008091C00086FFFCCF5F
:10FB30008091C00080648093C000C15DDE4FF88179
:10FB4000CF52D140F093C6008091C00086FFFCCF19
:10FB50008091C00080648093C000432F3093C60022
:10FB60008091C00086FFFCCF8091C00080648093AC
:10FB7000C000922F2093C6008091C00086FFFCCF6A
:10FB80008091C00080648093C0008EE08093C600A6
:10FB90008091C00086FFFCCF8091C000806480937C
:10FBA000C00065E1C15DDE4FE880CF52D1406E25D7
:10FBB00069276427FE01319610C090819093C6009A
:10FBC0008091C00086FFFCCF31968091C000806498
:10FBD0008093C0006927215030402115310569F715
:10FBE0006093C6008091C00086FFFCCF8091C0006A
:10FBF00080648093C00085B1805885B9772081F4F6
:10FC0000C15DDE4F0881CF52D1400F5FC15DDE4F35
:10FC10000883CF52D14090E0A0E0B0E00D941AF4F8
:10FC200027982F9880E090E020ED37E0F901319798
:10FC3000F1F7019684369105C9F700008091C00064
:10FC40008D7F8093C00081E180935700E895EE2777
:10FC5000FF270994FFCF90E00D941AF497FB092E2B
:10FC600007260AD077FD04D02ED006D000201AF443
:10FC7000709561957F4F0895F6F7909581959F4F08
:10FC80000895A1E21A2EAA1BBB1BFD010DC0AA1FDD
:10FC9000BB1FEE1FFF1FA217B307E407F50720F0F5
:10FCA000A21BB30BE40BF50B661F771F881F991F70
:10FCB0001A9469F760957095809590959B01AC01B9
:10FCC000BD01CF010895AA1BBB1B51E107C0AA1FAC
:10FCD000BB1FA617B70710F0A61BB70B881F991FED
:10FCE0005A95A9F780959095BC01CD010895F99991
:10FCF000FECF92BD81BDF89A992780B50895262F31
:10FD0000F999FECF1FBA92BD81BD20BD0FB6F89400
:0EFD1000FA9AF99A0FBE01960895F894FFCF63
:00000001FF
