:100000000C944A010C947B010C947B010C947B01B1
:100010000C947B010C947B010C947B010C947B0170
:100020000C947B010C94C70C0C94C70C0C94C70C5B
:100030000C947B010C947B010C947B010C947B0150
:100040000C947B010C947B010C947B010C947B0140
:100050000C947B010C947B010C947B010C947D0C23
:100060000C947B010C94470C0C941D0C0C947B019C
:100070000C947B010C947B010C947B010C947B0110
:100080000C947B010C947B010C947B010C947B0100
:100090000C947B010C947B010C947B010C947B01F0
:1000A0000C947B010C947B010C947B010C947B01E0
:1000B0000C947B010C947B010C947B010C947B01D0
:1000C0000C947B010C947B010C947B010C947B01C0
:1000D0000C947B010C947B010C947B010C947B01B0
:1000E0000C947B010C9421040C94AC030C94250318
:1000F0000C9460020C94E6020C9480090C94CD01DF
:100100000C94E1020C944F0B0C94DB010C947D01D8
:100110000C940D030C9413020C94F8020C941F031E
:100120000C9442040C9429030C9494030C942D0316
:100130000C94B9010C9400030C9437030C94DA0965
:100140000C94AD030C9417030C941B030C94AA019C
:100150000C9411030C9433030C9407030C940904BE
:100160000C94C1110C9404030C94FC020C94430DE8
:1001700000000A0B02090C0D0E0807030401000021
:10018000000000000000000000000000000000006F
:10019000000000000000000000000000121110002C
:1001A000000000000000000000000000000000004F
:1001B00000000000000000002000230026002900AD
:1001C0002C002F003200000100000301060109018C
:1001D00000002100240027002A002D0030003300F9
:1001E00001010000040107010A01000022002500AE
:1001F00028002B002E003100340002010000050110
:1002000008010B0105050505070508080808020295
:1002100002020A0A080804040404010101010101A0
:1002200001010303030303030303040707070C0C83
:100230000C0C0C0C0C0C020202020606060606064A
:1002400006060B0B0B0B0B0B0B0B010210202008EF
:100250000810204010204080020102010804020121
:100260000102040810204080804020100804020190
:1002700080040201804020100804020108040201E9
:100280000102040810204080010204081020408070
:10029000430DC11111241FBECFEFD1E2DEBFCDBF90
:1002A00000E00CBF13E0A0E0B2E0E6EBF6E200E015
:1002B0000BBF02C007900D92AA35B107D9F729E00C
:1002C000AAE5B3E001C01D92A03FB207E1F711E03B
:1002D000C9E4D1E000E006C021970109802FFE01AA
:1002E0000E941313C834D10780E00807A9F70E94C1
:1002F000530E0C9449130C940000AF92BF92CF920E
:10030000DF92EF92FF920F931F93CF93DF936C01D5
:100310007B018B01040F151FEB015E01AE18BF08B6
:10032000C017D10759F06991D601ED91FC91019068
:10033000F081E02DC6011995892B79F7C501DF9170
:10034000CF911F910F91FF90EF90DF90CF90BF90D2
:10035000AF900895FC01538D448D252F30E0842FFC
:1003600090E0821B930B541710F0CF9608950197DD
:100370000895FC01918D828D981761F0A28DAE0FCA
:10038000BF2FB11D5D968C91928D9F5F9F73928F51
:1003900090E008958FEF9FEF0895FC01918D828D7D
:1003A000981731F0828DE80FF11D858D90E008954A
:1003B0008FEF9FEF0895FC01918D228D892F90E0A2
:1003C000805C9F4F821B91098F739927089589EE56
:1003D00098E00E94DB0121E0892B09F420E0822FC4
:1003E0000895FC01A48DA80FB92FB11DA35ABF4FCA
:1003F0002C91848D90E001968F739927848FA68924
:10040000B7892C93A089B1898C91837080648C9377
:10041000938D848D981306C00288F389E02D808126
:100420008F7D80830895EF92FF920F931F93CF9358
:10043000DF93EC0181E0888F9B8D8C8D98131AC01F
:10044000E889F989808185FF15C09FB7F894EE8906
:10045000FF896083E889F989808183708064808363
:100460009FBF81E090E0DF91CF911F910F91FF90AE
:10047000EF900895F62E0B8D10E00F5F1F4F0F7356
:100480001127E02E8C8D8E110CC00FB607FCFACF11
:10049000E889F989808185FFF5CFCE010E94F101BD
:1004A000F1CFEB8DEC0FFD2FF11DE35AFF4FF082E2
:1004B0009FB7F8940B8FEA89FB8980818062CFCF48
:1004C000CF93DF93EC01888D8823B9F0AA89BB898B
:1004D000E889F9898C9185FD03C0808186FD0DC076
:1004E0000FB607FCF7CF8C9185FFF2CF808185FF97
:1004F000EDCFCE010E94F101E9CFDF91CF910895B8
:1005000080E090E0892B29F00E94E70181110E9490
:10051000000080E090E0892B49F080E090E0892B9A
:1005200029F00E94000081110E94000080E090E00C
:10053000892B49F080E090E0892B29F00E9400008F
:1005400081110E94000080E090E0892B49F080E05A
:1005500090E0892B29F00E94000081110C9400008A
:100560000895282F30E0F901E059FE4F9491F901E8
:10057000E65BFD4F44912C5F3D4FF901249122230E
:1005800009F435C0992311F191509231F8F4E92F13
:10059000F0E08827E153FD4F8F4F0C9413130003B5
:1005A0000403E102F802FC02E60207030D03110353
:1005B00017031B031F0325032903E6022D0333033F
:1005C0003703809180008F7780938000E22FF0E0E6
:1005D000EE0FFF1FE651FE4FA591B4918FB7F8942F
:1005E000EC91611148C040954E234C938FBF089504
:1005F000809180008F7DE8CF80918000877FE4CF5D
:1006000084B58F7784BDE2CF84B58F7DFBCF809199
:10061000B0008F778093B000D9CF8091B0008F7DEC
:10062000F9CF809190008F7780939000CFCF809109
:1006300090008F7DF9CF80919000877FF5CF8091DA
:10064000A0008F778093A000C1CF8091A0008F7D04
:10065000F9CF8091A000877FF5CF809120018F771F
:1006600080932001B3CF809120018F7DF9CF8091BD
:100670002001877FF5CF4E2BB8CF3FB7F8948091FC
:10068000A1059091A205A091A305B091A40526B55E
:10069000A89B05C02F3F19F00196A11DB11D3FBFBA
:1006A000BA2FA92F982F8827BC01CD01620F711D89
:1006B000811D911D42E0660F771F881F991F4A9583
:1006C000D1F708958F929F92AF92BF92CF92DF920F
:1006D000EF92FF924B015C010E943D036B017C0194
:1006E0000E943D036C197D098E099F09683E734085
:1006F00081059105A8F321E0821A9108A108B108AB
:1007000088EEC80E83E0D81EE11CF11C8114910410
:10071000A104B10429F7FF90EF90DF90CF90BF9034
:10072000AF909F908F9008952091A7053091A805D4
:100730002817390771F49091A5058091A60598179F
:1007400041F0E091A505F0E0E05AFA4F808190E099
:1007500008958FEF9FEF08950895EF92FF920F9302
:100760001F93CF93DF93DC015C96ED90FC905D9737
:10077000E114F10479F481E090E013969C938E9358
:10078000129790E080E0DF91CF911F910F91FF9041
:10079000EF9008955196ED91FC91529750968C915F
:1007A0005097982F90950FB75E962C915E97122FC9
:1007B000127021FD6095F8942081112319F1282BE6
:1007C0002083E7012197F1F728E0462F50E03081A0
:1007D00060FF1AC0382B3083E7012197F1F7BA0187
:1007E00075956795215089F7112381F080818923C0
:1007F00080830FBF5C968D919C910197F1F781E00A
:1008000090E0C1CF2923DCCF3923E5CF9081892B1C
:10081000EFCF2091A7053091A8052817390771F46B
:100820008091A6052091A50590E0805C9F4F821BDA
:10083000910960E470E00E94DD12089590E080E08C
:1008400008952091A7053091A80528173907B9F414
:100850009091A5058091A605981789F0E091A505CE
:10086000F0E0E05AFA4F80812091A50530E02F5F3B
:100870003F4F2F7333272093A50590E008958FEF06
:100880009FEF089590E080E0089520915A03211190
:1008900009C021E020935A033091860920918709ED
:1008A0003CBD2DBD60E0FC0184810C94B10261E08F
:1008B000FC0184810E94B10280915A03811110923F
:1008C0005A0308958EBD00000DB407FEFDCF8EB50E
:1008D00008958FEF0C9462040F931F93CF93DF93CF
:1008E0008C012FB7F8948091E5089091E608A091CB
:1008F000E708B091E8082FBFEC010E9469048F3F20
:10090000B1F02FB7F8948091E5089091E608A09196
:10091000E708B091E8082FBF8C1B9D0B801791074B
:1009200060F380E0DF91CF911F910F91089581E0F6
:10093000F9CFCF92DF92EF92FF920F931F93CF9355
:10094000DF93EC01162F69017A018E81882389F0EB
:100950008F8198859C012F5F3F4F38872F8382308E
:10096000924018F40E946904F3CFCE010E9457040C
:100970001E82CE010E9445048CE291E00E946C042C
:10098000812F80640E94620408E110E0D701C60153
:10099000002E04C0B695A795979587950A94D2F72F
:1009A0000E94620408501109083F8FEF180771F781
:1009B0008FEF0E94620410E00E9469048A8787FF1B
:1009C00004C01F3F11F01F5FF7CFDF91CF911F9140
:1009D0000F91FF90EF90DF90CF900895CF92DF922C
:1009E000EF92FF920F93CF93DF93EC01690182E1C5
:1009F000411551056105710599F08B85833039F0FA
:100A000089E0440F551F661F771F8A95D1F79A0119
:100A1000AB0168E1CE010E949904882319F084E0BB
:100A20008D832DC08EEF0E94620476018EEFD81A5E
:100A3000F70181917F010E946204EC14FD04C1F76B
:100A40008FEF0E9462048FEF0E9462040E9469048B
:100A50008A878F71853071F4011116C0CE010E9412
:100A6000570481E0DF91CF910F91FF90EF90DF90DD
:100A7000CF90089581E18D83CE010E945704CE016D
:100A80000E94570480E0EECF88E592E00E946C045B
:100A9000811102C085E1C4CF20E030E0A9016DE002
:100AA000CE010E949904882311F084E1B9CF0E94FD
:100AB00069048111FACFD2CF0F9340915C0350911A
:100AC0005D0360915E0370915F03411551056105FF
:100AD000710589F0082F20E633E090E080E00E9465
:100AE000EE04882349F010925C0310925D0310928B
:100AF0005E0310925F0381E00F9108950F93CF93EF
:100B0000C82F80915B03811105C0C1E08C2FCF916C
:100B10000F910895409100025091010260910202EC
:100B2000709103020C2F20E633E090E080E00E94F9
:100B3000EE04811102C0C0E0E9CFCC2331F381E0A3
:100B40000E945C058823B9F310925B03DFCFAF925C
:100B5000BF92CF92DF92EF92FF921F93CF93DF93DA
:100B60006B017C01142F8091000290910102A091F1
:100B70000202B09103028C159D05AE05BF0509F474
:100B8000BFC081E00E947E058823E1F180910600CC
:100B90008823A1F08091000090910100A0910200B3
:100BA000B0910300C816D906EA06FB0639F4809115
:100BB000070090910800892B09F461C0C0920000E1
:100BC000D0920100E0920200F092030080910B00AD
:100BD000A7019601833039F099E0220F331F441F9B
:100BE000551F9A95D1F761E190E080E00E94990449
:100BF000882391F083E08093050090E080E00E94DC
:100C0000570480E0DF91CF911F91FF90EF90DF902C
:100C1000CF90BF90AF9008952FB7F8948091E508DA
:100C20009091E608A091E708B091E8082FBFEC0189
:100C30000E94690480930A008F3FC1F42FB7F89493
:100C40008091E5089091E608A091E708B091E80846
:100C50002FBF8C1B9D0B8D32914050F38FE0809302
:100C6000050090E080E00E945704C7CF8E3FC1F599
:100C7000109208001092070081E080930600C0E601
:100C8000D3E080E6A82E85E0B82E0E9469048993FF
:100C9000AC16BD06D1F780910700909108009E5FC9
:100CA000909308008093070020910900222319F0F7
:100CB00081159240E8F0809106008823C9F0809168
:100CC0000700909108009C012F5F3F4F3093080070
:100CD000209307008230924028F40E946904EFCFED
:100CE0008DE0BDCF90E080E00E9457041092060096
:100CF000C0920002D0920102E0920202F09203023E
:100D000040915B03412B40935B0381E07BCF4F928B
:100D10005F926F927F928F929F92AF92BF92CF928B
:100D2000DF92EF92FF920F931F93CF93DF93EC012B
:100D3000423051056105710590F480E0DF91CF915B
:100D40001F910F91FF90EF90DF90CF90BF90AF90E9
:100D50009F908F907F906F905F904F9008958985BE
:100D60009A85AB85BC850196A11DB11D8417950799
:100D7000A607B70710F3CB88DC88ED88FE888F893B
:100D8000803109F042C0BB27A72F962F852F48013D
:100D900059012A013B01C80ED91EEA1EFB1E809193
:100DA000000290910102A0910202B0910302C816C4
:100DB000D906EA06FB0699F58F898031C1F5B301A2
:100DC000A201552766277727440F551F405A5C4FCD
:100DD000FA019182808280915B03816080935B0342
:100DE0008A89823080F08D819E81AF81B8858C0D9B
:100DF0009D1DAE1DBF1D80935C0390935D03A0936A
:100E00005E03B0935F0381E099CFDB01CA01E7E0A5
:100E1000B695A79597958795EA95D1F7B8CF40E015
:100E2000C701B6010E94A7058111C6CF86CFB301C5
:100E3000A2014F77552766277727440F551F440F88
:100E4000551F405A5C4FFA0180829182A282B38280
:100E5000C2CF8F929F92AF92BF92CF92DF92EF92CA
:100E6000FF920F931F93CF93DF93FC0181859285AF
:100E7000A385B4850196A11DB11D84179507A6070A
:100E8000B70770F480E0DF91CF911F910F91FF9031
:100E9000EF90DF90CF90BF90AF909F908F9008958C
:100EA00083889488A588B6888789803189F5BB278F
:100EB000A72F962F852FE9016A017B018F01BC01C5
:100EC000CD01680D791D8A1D9B1D809000029090B8
:100ED0000102A0900202B090030286169706A806AF
:100EE000B90601F5F8018789803111F5DD24EE247A
:100EF000FF24F601EE0FFF1FE05AFC4F8081918125
:100F0000B0E0A0E088839983AA83BB8381E0BBCF54
:100F1000DB01CA01C7E0B695A79597958795CA9555
:100F2000D1F7C9CF40E00E94A7058111DBCFAACF3E
:100F3000E894C7F8DD24EE24FF24F601EE0FFF1F2E
:100F4000EE0FFF1FE05AFC4F80819181A281B38197
:100F5000BF70D8CF8F929F92AF92BF92CF92DF9205
:100F6000EF92FF920F931F93CF93DF93EC018D814C
:100F700081110EC080E0DF91CF911F910F91FF9002
:100F8000EF90DF90CF90BF90AF909F908F9008959B
:100F90000B891C892D893E890417150726073707F9
:100FA00048F34A015B01823031F48A869B86AC8625
:100FB000BD8681E0E0CF81149104A104B10449F41D
:100FC0001E821F82188619861A861B861C861D861D
:100FD000F0CF0A851B852C853D85EB8DFC8D8585A5
:100FE00090E00996B901A8014150510961097109C0
:100FF000082E04C076956795579547950A94D2F7C1
:1010000075016401E1E0CE1AD108E108F10804C0DD
:10101000F694E794D794C7948A95D2F7C416D50668
:10102000E606F70620F0012B022B032B11F58F8922
:10103000988DA98DBA8D8E839F83A887B9878E01DD
:101040000A5F1F4FC114D104E104F10409F4ADCFCC
:101050004E815F816885798598018B8D9C8D0E947A
:10106000290791E0C91AD108E108F1088111EACFF6
:1010700081CFC41AD50AE60AF70AE1CF3F924F9210
:101080005F926F927F928F929F92AF92BF92CF9218
:10109000DF92EF92FF920F931F93CF93DF93CDB721
:1010A000DEB72C970FB6F894DEBF0FBECDBF5C0144
:1010B000DC015B968D909C905C9716964D905D90B0
:1010C0006D907C901997411451046104710409F4E6
:1010D00068C0BFEF4B1A5B0A6B0A7B0A312CF40124
:1010E00081859285A385B4859C01AD012F5F3F4F1B
:1010F0004F4F5F4F29873A874B875C8773016201A7
:101100001D821E821F821886F40181859285A38527
:10111000B4852D813E814F815885281739074A07AC
:101120005B0708F056C089859A85AB85BC858C1510
:101130009D05AE05BF0550F482E0C82ED12CE12CF0
:10114000F12C92E0492E512C612C712C9E012F5FC5
:101150003F4FB701A601C4010E9429078823C9F1A6
:1011600089819A81AB81BC81892B8A2B8B2B09F1D8
:10117000260137019FEF491A590A690A790A2D8118
:101180003E814F8158852F5F3F4F4F4F5F4F2D83DB
:101190003E834F8358873FEFC31AD30AE30AF30A0B
:1011A000B3CFF40140805180628073803324339444
:1011B00096CFC414D504E604F70409F70FEF1FEF28
:1011C0002FEF3FE0B701A601C4010E9487068111FD
:1011D00019C080E02C960FB6F894DEBF0FBECDBFCD
:1011E000DF91CF911F910F91FF90EF90DF90CF9003
:1011F000BF90AF909F908F907F906F905F904F9037
:101200003F900895D50116964D915D916D917C9119
:101210001997411551056105710539F0970186014E
:10122000C4010E9487068823A1F2D5011696CD92AB
:10123000DD92ED92FC921997332051F0D701C6014F
:101240000196A11DB11DF40180839183A283B38314
:10125000F5018789908DA18DB28D892B8A2B8B2BDF
:1012600039F48481C78AD08EE18EF28E80688483BF
:10127000F50184818062848381E0ACCF1F93CF939A
:10128000DF93EC01162F8C8187FF2AC06E857F8546
:101290008889998941E00E94A705882361F1EA893C
:1012A00080E2E89FF0011124E05AFC4F309719F1D9
:1012B0008D81823040F48B899C89AD89BE89848F71
:1012C000958FA68FB78F8F89988D938F828F8F89F7
:1012D000988DA98DBA8DB58BA48B8C818F778C83DB
:1012E000111103C08C818F7E8C83812FDF91CF9170
:1012F0001F910C947E0580E0DF91CF911F9108959E
:101300001F93CF93DF93EC018D81813031F090E01A
:1013100080E0DF91CF911F9108958C8181FFF7CFFD
:1013200082FD1BC090E080E00E9445040E94690499
:10133000182F90E080E00E9457041F3F41F78C81F6
:1013400085FF1EC08D81882321F060E0CE010E94C0
:101350003E098C818F7D8C83DACF4B895C896D89C6
:101360007E898A859B85AC85BD8584179507A607F0
:10137000B707C1F2CE010E94AA078111D3CFC7CF10
:1013800040915C0350915D0360915E0370915F0337
:10139000452B462B472B21F080E00E945C05B7CF00
:1013A00080618C832A853B85317080E092E0821BCE
:1013B000930BAFCF9F92AF92BF92CF92DF92EF92FB
:1013C000FF920F931F93CF93DF9300D01F921F9232
:1013D000CDB7DEB78C016D83DC0115968C91159726
:1013E000813009F0B9C014968C9181FFB5C082FD9F
:1013F0009FC0D8015B96ED91FC915C971A96AD90D9
:10140000BD90CD90DC901D9794809A94B601A50173
:1014100089E076956795579547958A95D1F79422F7
:10142000B1E0BB22992009F49FC0D8015B96ED91F1
:10143000FC915C971696CD90DD90ED90FC901997FD
:10144000B2E0CB1AD108E108F108858504C0CC0CC4
:10145000DD1CEE1CFF1C8A95D2F7468557856089F6
:101460007189C40ED51EE61EF71EC90CD11CE11CE5
:10147000F11CA114B10409F00AC1F8014285538599
:101480006485758583899489A589B6894817590724
:101490006A077B0708F4FBC081E00E947E05882371
:1014A00009F45AC0C0920002D0920102E0920202F6
:1014B000F092030280915B03816080935B03F501EE
:1014C000E05AFC4F8D818083F80182859385A48545
:1014D000B5850196A11DB11D82879387A487B58725
:1014E0004389548965897689481759076A077B07B4
:1014F00038F42481838B948BA58BB68B206824834E
:10150000D80114968C9183FD9FC081E090E00F90EC
:101510000F900F900F900F90DF91CF911F910F912F
:10152000FF90EF90DF90CF90BF90AF909F90089585
:10153000F801438954896589768982859385A485D4
:10154000B585481759076A077B0709F452CFC801C8
:101550000E94AA0781114DCF81E090E0D801139637
:101560009C938E93129749C0D80116964D915D9128
:101570006D917C911997A114B10409F071C04115C6
:1015800051056105710589F557968D919D910D90D5
:10159000BC91A02D0097A105B10509F04FC0C8016D
:1015A0000E943E088823C1F2D8015B96ED91FC9120
:1015B0005C971696CD90DD90ED90FC901997B2E077
:1015C000CB1AD108E108F108858504C0CC0CDD1CDC
:1015D000EE1CFF1C8A95D2F7468557856089718974
:1015E000C40ED51EE61EF71E48CF9E012F5F3F4F4B
:1015F000CF010E942907811103C090E080E087CFCE
:1016000089819A81AB81BC81F801238D348DF901E8
:10161000278948EF5FEF60E070E0203121F048EF6C
:101620005FEF6FEF7FE084179507A607B70730F0ED
:10163000C8010E943E088111F8CE8ECFF801868342
:101640009783A087B187F1CEF8018581882309F4BB
:1016500083CF61E0C8010E943E09811156CF7CCF43
:101660006A017B01B2E0CB1AD108E108F108858557
:1016700004C0CC0CDD1CEE1CFF1C8A95D2F74685FD
:10168000578560897189C40ED51EE61EF71E41E09C
:10169000C701B6010E94A705811111CF5DCF089542
:1016A000CF93DF93EC016991662329F081ED99E0F6
:1016B0000E94AD03F8CFDF91CF910895EF92FF9292
:1016C0001F93CF93DF9300D0CDB7DEB77C01FC0131
:1016D000118119821A821B826DE081ED99E00E94CE
:1016E000AD036AE081ED99E00E94AD0382E0F7016D
:1016F000E80FF11D9081992319F019278F5FF7CF1B
:10170000E12F17FF02C0EFE0E10FE595E595E595C4
:10171000E5950E2E000CFF0BEC5FFD4F8081898359
:10172000E12FEF78E7FF03C0E150E06FEF5F0E2E8F
:10173000000CFF0BEC5FFD4F80818A831B82C70189
:101740000E94500B6AE281ED99E00E94AD03CE0148
:1017500001960E94500B6DE081ED99E00E94AD036F
:101760006AE081ED99E00E94AD030F900F900F9019
:10177000DF91CF911F91FF90EF900895FC010190B0
:101780000020E9F73197AF01481B590BBC0189EEE6
:1017900098E00C947D018F929F92AF92BF920F932D
:1017A0001F93CF93DF93CDB7DEB7A1970FB6F89411
:1017B000DEBF0FBECDBF19A2423008F44AE08E0151
:1017C0000F5D1F4F842E912CB12CA12CA5019401EB
:1017D0000E94F112E62FB901CA01EA30F4F4E05D8B
:1017E000D801EE938D01232B242B252B79F790E044
:1017F00080E0109719F0CD010E94BE0BA1960FB6A4
:10180000F894DEBF0FBECDBFDF91CF911F910F9136
:10181000BF90AF909F908F900895E95CE1CFCF93F8
:10182000DF930E94BE0BEC0184E492E00E94BE0BA9
:101830008C0F9D1FDF91CF9108951F920F920FB6CD
:101840000F9211240BB60F922F933F934F935F93F8
:101850006F937F938F939F93AF93BF93EF93FF9378
:1018600089EE98E00E94F101FF91EF91BF91AF9155
:101870009F918F917F916F915F914F913F912F91A8
:101880000F900BBE0F900FBE0F901F9018951F92D8
:101890000F920FB60F9211240BB60F922F938F93C6
:1018A0009F93EF93FF93E091F908F091FA088081FC
:1018B000E091FF08F091000982FD1DC090818091A8
:1018C00002098F5F8F7320910309821741F0E09125
:1018D0000209F0E0E751F74F958F80930209FF91DD
:1018E000EF919F918F912F910F900BBE0F900FBE94
:1018F0000F901F9018958081F2CF1F920F920FB614
:101900000F9211242F933F938F939F93AF93BF9385
:101910008091E5089091E608A091E708B091E80869
:101920003091A00523E0230F2D3758F50196A11D16
:10193000B11D2093A0058093E5089093E608A0933D
:10194000E708B093E8088091A1059091A205A091C5
:10195000A305B091A4050196A11DB11D8093A10519
:101960009093A205A093A305B093A405BF91AF9156
:101970009F918F913F912F910F900FBE0F901F90CD
:10198000189526E8230F0296A11DB11DD2CF1F92F4
:101990000F920FB60F9211240BB60F922F933F9315
:1019A0004F935F936F937F938F939F93AF93BF9367
:1019B000EF93FF93E091A705F091A805309749F0C8
:1019C000A685B7858585968D91FF16C09C91892344
:1019D000B1F4FF91EF91BF91AF919F918F917F9162
:1019E0006F915F914F913F912F910F900BBE0F9090
:1019F0000FBE0F901F9018959C91892351F7A389D2
:101A0000B4899C918589809589238C93868997894F
:101A10000197F1F7608D718DA685B785558538E002
:101A200020E0CB010197F1F7822F90E09595879503
:101A3000282F4C91452309F02068315091F7868D6D
:101A400081FD20958091A60590E001968F739927DE
:101A50003091A505381799F0A091A605B0E0A05ADD
:101A6000BA4F2C938093A605828D938D0197F1F741
:101A7000A389B4898C919589892B8C93AACF868D63
:101A80008160868FF1CF0F931F93CF93DF931092D6
:101A9000EC081092EB0888EE93E0A0E0B0E08093B1
:101AA000ED089093EE08A093EF08B093F00828E1BA
:101AB00032E03093EA082093E90825EC30E03093D7
:101AC000F6082093F50824EC30E03093F8082093D2
:101AD000F70820EC30E03093FA082093F90821EC65
:101AE00030E03093FC082093FB0822EC30E0309388
:101AF000FE082093FD0826EC30E030930009209387
:101B0000FF08109202091092030910920409109222
:101B1000050920E5209386091092870910928D0906
:101B200010928E09109291091092930942E050E0B0
:101B300060E070E040939409509395096093960992
:101B4000709397091092AB091092B5091092B409DD
:101B50002AE232E03093B3092093B2091092B70918
:101B60001092D4091092D3098093D5099093D60985
:101B7000A093D709B093D80986E392E09093D20955
:101B80008093D1091092E8091092E7091092EA09AE
:101B90001092E9091092EC091092EB091092EE09EB
:101BA0001092ED096091EF096E7F6D7F6093EF09F0
:101BB0006695617081E0682783E00E94B1024DE480
:101BC00052E0FA01649187E092E0FC012491222323
:101BD00099F030E0220F331FF901E053FE4FA59139
:101BE000B491F901E651FE4F259134912FB7F89445
:101BF0003C91632B6C932FBFFA0144914093E10910
:101C0000FC018491E82FF0E0EE0FFF1FE651FE4F3C
:101C1000859194919093E3098093E2090CE412E09A
:101C2000F8012491C6E0D2E0FE0184918823C9F036
:101C300090E0880F991FFC01E053FE4FA591B491ED
:101C4000FC01E651FE4F459154913FB7F8949C91A9
:101C5000822F809598239C93FA0190818923808319
:101C60003FBF8091EF0981FD04C061E082E00E94E6
:101C7000B10282E08093DD09F80104910093DE094E
:101C8000FE01C491EC2FF0E0EE0FFF1FEA54FE4F6F
:101C9000859194919093E0098093DF09DF91CF9132
:101CA0001F910F910895CF93DF93CDB7DEB7639760
:101CB0000FB6F894DEBF0FBECDBF789484B58260B6
:101CC00084BD84B5816084BD85B5826085BD85B5E0
:101CD000816085BD80916E00816080936E0010925E
:101CE00081008091810082608093810080918100D9
:101CF000816080938100809180008160809380006A
:101D00008091B10084608093B1008091B0008160C7
:101D10008093B000809191008260809391008091C7
:101D20009100816080939100809190008160809308
:101D300090008091A10082608093A1008091A10019
:101D400081608093A1008091A00081608093A000B9
:101D50008091210182608093210180912101816025
:101D600080932101809120018160809320018091E6
:101D70007A00846080937A0080917A0082608093F8
:101D80007A0080917A00816080937A0080917A0055
:101D9000806880937A001092C10068EE73E080E062
:101DA00090E00E94620387E492E00E940F0CE091B1
:101DB000F908F091FA0882E08083E091F508F0914B
:101DC000F6081082E091F708F091F80880E180832E
:101DD00010920109E091FD08F091FE0886E08083F1
:101DE000E091FB08F091FC08808180618083E091A4
:101DF000FB08F091FC08808188608083E091FB08FB
:101E0000F091FC08808180688083E091FB08F0916C
:101E1000FC0880818F7D808387E692E00E940F0C12
:101E20001092EC091092EB091092EA091092E9095C
:101E30001092E8091092E7098FE190E09093EE0983
:101E40008093ED098091DD0996EF980F943048F06A
:101E50002EEC280F243028F022EC280F283008F030
:101E600061C021E030E03093E8092093E7092DE1DB
:101E700030E03093EA092093E9092DE030E0309317
:101E8000EC092093EB09943050F02EEC280F24300D
:101E900030F022EC280FF0E0E0E0283010F4E8E623
:101EA000F0E02081943028F032EC380F383008F41C
:101EB00023C131E0232B943048F09EEC980F9430EE
:101EC00028F08E53F0E0E0E0883010F4E8E6F0E02F
:101ED00020832091DD0936EF320F343008F40EC133
:101EE0008EEC820F843008F409C182EC820F8830B6
:101EF00008F007C18DE690E09093E5098093E4092E
:101F0000343008F001C12650330B81E001C0880F46
:101F10002A95EAF78093E6098091ED099091EE0900
:101F20000197F1F78091EB099091EC09892B49F128
:101F3000E091A705F091A80549E0E13DF40709F11A
:101F4000309739F0A389B4899C918589809589233C
:101F50008C938091EF098E7F8093EF091092A605F4
:101F60001092A50581ED99E09093A8058093A705AF
:101F7000E091E409F091E50980819091E609892BCF
:101F800080838BE892E00E940F0C8CEA92E00E9422
:101F90005E0B87E692E00E940F0C8BED92E00E94B0
:101FA0005E0B8BEE92E00E940F0C81E193E00E94A9
:101FB0005E0B64EF71E080E090E00E9462038FE1CD
:101FC00093E00E940F0C8BE393E00E940F0C1092A1
:101FD000D6081092D3081092D4081092D50809EAB6
:101FE00015E081ED99E00E940904892BD1F381ED80
:101FF00099E00E942104F80181938F01F8E0093CE7
:102000001F0779F71092C80889EA95E00E94BE0B75
:10201000E9EAF5E09F01295A35408191843209F0BF
:102020008BC18081873409F087C181818E3419F09A
:10203000803509F081C18281823509F07DC18381BB
:102040008D3409F079C18481833409F075C14091E0
:10205000D1084A8B4090C9085090CA086090CB08BC
:102060007090CC088091D208898B8090CD08909098
:10207000CE08A090CF08B090D0089091D608988B49
:10208000E090D408F090D508E091D308EF87C9011B
:1020900087559A4F1C0110E000E0F10181911F016A
:1020A000882309F44DC18C3209F0E1C00F5F1F4F46
:1020B0000130110509F063C0C12CD12C760141918A
:1020C0004F874423B1F1842F8D7F8C3291F1AAE0A8
:1020D000B0E0A70196010E941B134F85242F440FE7
:1020E000330B205331096901330FEE08FF08C60E88
:1020F000D71EE81EF91EE3CF34E0DCCE8BE690E07D
:10210000FBCE90E080E0F8CE88E0223309F402CFE5
:1021100084E0233309F4FECE82E0243309F4FACEBE
:1021200082EC820F883018F42E53330BEECE81E010
:10213000F1CEC701B60120E137E240E050E00E9455
:10214000F1122B8B822F885F8F87C701B60124E69F
:1021500030E040E050E00E94F112F62ECA01B901D1
:1021600024E630E040E050E00E94F112E62E9F8528
:10217000983108F492CFEB89E051EF878ECF02308F
:10218000110549F4F1E0F88BF1018081813409F403
:1021900084CF188A82CF0330110569F520E030E042
:1021A000A901D1908CE2D816C9F0DD20B9F09EE2E9
:1021B000D916B9F3AAE0B0E00E941B132D2DDD0C57
:1021C000330B205331094901330FAA08BB08A5017D
:1021D0009401260F371F481F591FE3CFCA01B901C9
:1021E0000E944F1220E034E244E759E40E94DD11DE
:1021F0004B015C0152CF0430110519F4F081F98BC9
:102200004CCF0530110569F520E030E0A901D190EF
:102210008CE2D816C9F0DD20B9F09EE2D916B9F3E8
:10222000AAE0B0E00E941B132D2DDD0C330B2053D0
:1022300031092901330F66087708A3019201260F9F
:10224000371F481F591FE3CFCA01B9010E944F121F
:1022500020E034E244E759E40E94DD112B013C0107
:102260001CCF0630110519F4F081FA8B16CF0C3013
:10227000110509F012CF8092CD089092CE08A0925D
:10228000CF08B092D00849894093D2084092C9083B
:102290005092CA086092CB087092CC088F858093C8
:1022A000D308E092D408F092D50898899093D60884
:1022B000EA89E093D1088EE0E9ECF8E0DE011196BE
:1022C00001900D928A95E1F78EE0FE013196A7ED1F
:1022D000B8E001900D928A95E1F784E492E00E94C3
:1022E000BE0B83E593E00E94BE0B6091E10870E0B5
:1022F00090E080E04AE00E94CB0B87E593E00E94EB
:10230000BE0B6091E20870E090E080E04AE00E943D
:10231000CB0B87E593E00E94BE0B6091E30870E071
:1023200090E080E04AE00E94CB0B84E492E00E94BF
:10233000BE0B0E9480024BCE848181116BCEBBCF3D
:102340008092CD089092CE08A092CF08B092D0088B
:10235000F989F093D2084092C9085092CA08609255
:10236000CB087092CC084F854093D308E092D408F4
:10237000F092D50888898093D6089A899093D108DD
:102380009ACF86E392E09093D2098093D10980910D
:10239000A7059091A805815D994071F4E091E40949
:1023A000F091E50990818091E609809589238083E9
:1023B0001092A8051092A70508950E94F1110C949F
:1023C000A3120E949C1258F00E94951240F029F42A
:1023D0005F3F29F00C948C1251110C94D7120C947D
:1023E00092120E94B41268F39923B1F3552391F32A
:1023F000951B550BBB27AA2762177307840738F074
:102400009F5F5F4F220F331F441FAA1FA9F335D0D0
:102410000E2E3AF0E0E832D091505040E695001C84
:10242000CAF72BD0FE2F29D0660F771F881FBB1F3E
:10243000261737074807AB07B0E809F0BB0B802D1C
:10244000BF01FF2793585F4F3AF09E3F510578F048
:102450000C948C120C94D7125F3FE4F3983ED4F3A3
:10246000869577956795B795F7959F5FC9F7880F1C
:10247000911D9695879597F90895E1E0660F771F6E
:10248000881FBB1F621773078407BA0720F0621BFF
:10249000730B840BBA0BEE1F88F7E0950895E89450
:1024A00009C097FB3EF490958095709561957F4F9C
:1024B0008F4F9F4F9923A9F0F92F96E9BB2793954A
:1024C000F695879577956795B795F111F8CFFAF45A
:1024D000BB0F11F460FF1BC06F5F7F4F8F4F9F4F8B
:1024E00016C0882311F096E911C0772321F09EE8E9
:1024F000872F762F05C0662371F096E8862F70E04F
:1025000060E02AF09A95660F771F881FDAF7880F28
:102510009695879597F9089597F99F6780E870E0F9
:1025200060E008959FEF80EC089500240A94161649
:10253000170618060906089500240A9412161306B1
:10254000140605060895092E0394000C11F488233F
:1025500052F0BB0F40F4BF2B11F460FF04C06F5F5B
:102560007F4F8F4F9F4F089557FD9058440F551F31
:1025700059F05F3F71F04795880F97FB991F61F005
:102580009F3F79F087950895121613061406551F7C
:10259000F2CF4695F1DF08C0161617061806991FE8
:1025A000F1CF86957105610508940895E894BB27DD
:1025B00066277727CB0197F9089597FB072E16F426
:1025C000009407D077FD09D00E94261307FC05D0A0
:1025D0003EF4909581959F4F0895709561957F4F3A
:1025E0000895A1E21A2EAA1BBB1BFD010DC0AA1F54
:1025F000BB1FEE1FFF1FA217B307E407F50720F06C
:10260000A21BB30BE40BF50B661F771F881F991FE6
:102610001A9469F760957095809590959B01AC012F
:10262000BD01CF010895EE0FFF1F881F8BBF0790DC
:10263000F691E02D19940E943A13A59F900DB49F36
:10264000900DA49F800D911D11240895AA1BBB1B02
:1026500051E107C0AA1FBB1FA617B70710F0A61BA2
:10266000B70B881F991F5A95A9F780959095BC01C3
:10267000CD010895A29FB001B39FC001A39F700D2B
:10268000811D1124911DB29F700D811D1124911D7A
:10269000089511E0C9E4D1E000E006C0802FFE01FA
:1026A0000E9413132196011DCA34D10780E0080748
:0626B000A9F7F894FFCF2A
:1026B600FFFFFFFF30313233343536373839414288
:1026C600434445460000000013027D01AA01600252
:1026D600DB01B901CD0100000000DA097D018009A6
:1026E6004F0B00000000AD037D014204AC0309045A
:1026F600210494030D0A0053657474696E67207390
:10270600657269616C20737065656420746F203131
:1027160031353230302E0053657474696E67204748
:1027260050532073657269616C207370656564200F
:10273600746F203131353230302E00536574746930
:102746006E67204E4D4541206F7574707574206616
:1027560072657175656E636965732E0024504D54FC
:102766004B3331342C302C312C312C312C312C3054
:102776002C302C302C302C302C302C302C302C3073
:102786002C302C302C302C302C300024504D544B17
:102796003235312C3131353230300053657474693D
:1027A6006E67206D65737361676520696E74657207
:1027B60076616C20746F2031207365636F6E642EB2
:1027C6000024504D544B3232302C313030300047DB
:1027D6005053207374617274757020646F6E652037
:1027E600636F72726563746C792E00426567696EF9
:1027F6006E696E67207472616E736D697373696F4B
:0A2806006E2E0054696D653A000063
:00000001FF
